:020000040800F2
:100000006807002001010008233600086527000862
:1000100021360008CD080008613C000800000000FF
:1000200000000000000000000000000099360008F9
:10003000C30A00080000000025360008AD3800089B
:100040001B0100081B0100081B0100081B01000820
:100050001B0100081B0100081B0100081B01000810
:100060001B0100081B0100081B0100081B01000800
:100070001B0100081B0100081B0100081B010008F0
:100080001B0100081B0100081B0100081B010008E0
:100090001B0100081B0100081B010008C50A00081D
:1000A0001B0100081B0100081B0100081B010008C0
:1000B000193900081B0100081B01000875270008FA
:1000C000692700081B0100081B0100081B0100082C
:1000D0001B010008D13B0008DD3B00081B010008A4
:1000E0001B0100081B0100081B010008DFF80CD0F1
:1000F00000F062FA00480047C14500086807002088
:100100000648804706480047FEE7FEE7FEE7FEE7B1
:10011000FEE7FEE7FEE7FEE7FEE7FEE71739000829
:10012000ED0000082DE9F05F0546002092469B4651
:1001300088460646814640241BE0284641464746FD
:10014000224600F020F853465A46C01A914110D377
:1001500011461846224600F068F82D1A67EB010890
:100160004F4622460120002100F05FF817EB0009FE
:100170004E41201EA4F10104DFDC484631462A46E8
:100180004346BDE8F09F202A04DB203A21FA02F022
:100190000021704721FA02F3D040C2F120029140C1
:1001A000084319467047D2B201E000F8012B491EFE
:1001B000FBD270470022F6E710B513460A46044604
:1001C0001946FFF7F0FF204610BD421C10F8011B36
:1001D0000029FBD1801A704700F0004230F0004047
:1001E0000AD0C10D01F56071C0F3160042EA015159
:1001F000C20840071143704700200146704730B5E0
:100200000B46014600202022012409E021FA02F5D4
:100210009D4205D303FA02F5491B04FA02F528446E
:10022000151EA2F10102F1DC30BD202A04DB203AC8
:1002300000FA02F1002070479140C2F1200320FA39
:1002400003F31943904070472DE9FE4F804681EA41
:100250000300C00F0C46009021F0004123F0004540
:10026000B8EB0200A94105D24046214690461C4603
:100270000B46024623F00040104347D0270DC7F33A
:100280000A00C3F30A510290401A019040286BDA29
:10029000C3F3130040F4801B0098924620B1002362
:1002A000D2EB030A63EB0B0B01985946C0F14002F5
:1002B0005046FFF7BAFF06460D4650465946019A8A
:1002C00000F08CF910EB08006141002487EA11521C
:1002D00084EAE7731A4340D0009A62B3019A012A74
:1002E0004FEA075215DC001B61EB02014FF00042A0
:1002F00002EA0752CDE90042001C41F58011324666
:100300002B4600F08CF903B0BDE8F08F4046214643
:10031000F9E7001B61EB0201001C41F58013001896
:100320005B412018A2F5001747EB030140EAD570A6
:10033000B6196D4111E06D084FEA360645EAC07501
:100340004FEA0752001B61EB0201001C41F58011CE
:1003500049084FEA30000019514132462B4603B09C
:10036000BDE8F04F00F04CB9009801224000002396
:10037000D0EB020263EBE073009821464FEAE07491
:10038000B8EB000061EB0401E9E783F000435BE7B1
:1003900081F0004158E72DE9FE4F81EA030404F0A3
:1003A000004421F0004100944FF0000B23F0004383
:1003B00050EA01045ED052EA03045BD0C3F30A544E
:1003C000C1F30A552C44A4F2F3340194A0FB025467
:1003D000C1F3130141F48011C3F3130343F48013F9
:1003E00001FB024400FB034E840A970A44EA81544D
:1003F00047EA8357A4FB076802958D0A05FB07852A
:100400004FEA932C04FB0C542705029D4FEA065833
:1004100047EA1637B5EB08056EEB070C870E920E10
:1004200047EA811742EA8312A7FB0201B6EB0B01F0
:1004300064EB00042B0D43EA0C335E1844EB1C50B4
:10044000DA465146E7FB0201C5F313044FEA0B33CA
:1004500043EA14534FEA0432019C43EA0603A4F131
:100460000C040294009CCDE900B400F0D8F803B06D
:10047000BDE8F08F00200146F9E72DE9F04D81EA53
:10048000030404F0004B21F0004514464FF0000A2D
:1004900023F0004150EA050220D054EA01021DD0A9
:1004A000C5F30A570246C5F31303C1F31300C1F3A2
:1004B0000A5640F4801543F48013A7EB0608101B7E
:1004C000D64608F2FD3873EB050002D308F10108A7
:1004D00001E092185B41B8F1000F03DA00200146F9
:1004E000BDE8F08D00204FF48011064684460EE0F2
:1004F000171B73EB050705D3121B63EB05030643BC
:100500004CEA010C49084FEA300092185B4150EA6E
:100510000107EDD152EA030012D082EA040083EA17
:100520000501084305D0101BAB4106D20122002370
:1005300006E000224FF0004302E06FF0010253108A
:100540001AEB06004CEB085110EB0A0041EB0B01D3
:10055000BDE8F04D00F054B8C1F30A52C1F31301E5
:1005600040F2FF3341F480119A4202DA0020014642
:10057000704740F233439A42A2F2334202DC5242C5
:10058000FFF701BEFFF751BE30B5041E71F1000444
:1005900004DB4FF00044404264EB0101141E73F190
:1005A000000405DB1C464FF00043524263EB04039A
:1005B000994208BF904230BD064C074D06E0E06806
:1005C00040F0010394E8070098471034AC42F6D39A
:1005D000FFF790FDA0460008C0460008202A06DB71
:1005E000CB17203A41FA02F043EAE07306E041FA01
:1005F00002F3D040C2F120029140084319467047EF
:1006000010B5141E73F1000408DA401C41F100011A
:1006100092185B411A4301D120F0010010BD2DE971
:10062000F04D92469B4611B1B1FA81F202E0B0FA68
:1006300080F220329046FFF7F8FD04460F4640EA6C
:100640000A0041EA0B0153465A46084313D01146AB
:1006500053EA010019D0C8F140025046FFF793FD5C
:1006600005460E46504659464246FFF7DEFD084312
:1006700005D0012004E020463946BDE8F08D002079
:10068000054346EAE0762C4337430A986305E40ABB
:10069000A0EB08000022FD0A44EA47540A3002D5C4
:1006A00000200146E9E7010510196941DDE9084527
:1006B00000196941BDE8F04DA2E700000248407909
:1006C0003038C0B270470000A400002070B5044666
:1006D00000688168C943C9071CD1816821F0010104
:1006E000816000F0C7FC05460FE000BF00F0C2FCCF
:1006F000401B022809D9A06A40F01000A062E06AFD
:1007000040F00100E062012070BD20688068C043B5
:10071000C007EBD0002070BD2DE9F04799B0002054
:10072000024669460A54401CC0B26428FAD3DFF876
:1007300090C107209CF80530372B07D0382B57D0B5
:10074000392B73D0002019B0BDE8F0875D4F00252C
:1007500007F10A0907F1140A002304E0401CCC54F5
:100760005B1CC0B2DBB21CF800403B2CF6D1401C35
:10077000C0B225B1012D11D0022D33D121E00024CA
:100780003A55641CE4B20A2CFAD3002403E00E5D4F
:100790003E55641CE4B29C42F9D323E000244E464B
:1007A0003255641CE4B20A2CFAD3002406E000BFE0
:1007B00011F8048006F80480641CE4B29C42F7D36C
:1007C00010E0002456463255641CE4B20A2CFAD3D9
:1007D000002405E011F8048006F80480641CE4B2EB
:1007E0009C42F7D36D1CEDB2022DB5D90720AAE7C4
:1007F000344E00251E3606F10A07002304E0401C93
:10080000CC545B1CC0B2DBB21CF800403B2CF6D1D0
:10081000401CC0B215B1012D24D112E00024325584
:10082000641CE4B20A2CFAD3002407E020E000BFE5
:1008300011F8048006F80480641CE4B29C42F7D3EB
:1008400010E000243A55641CE4B20A2CFAD30024C8
:1008500006E000BF11F8048007F80480641CE4B2CD
:100860009C42F7D36D1CEDB2012DC6D908206AE772
:10087000002304E0401CCC545B1CC0B2DBB21CF86B
:1008800000403B2CF6D10F4D002432352A55641C14
:10089000E4B20A2CFAD3002203E08C5CAC54521C64
:1008A000D2B29A42F9D3401CC1B207481CF80120C9
:1008B0006144303A0270897830394170092042E74A
:1008C000A40000206800002005000020FEE710B50D
:1008D0000022012100F0C0F8BDE81040052000F022
:1008E000A3BA10B504460298216022716371A07109
:1008F0002820A0720620E0710C2020721420607263
:100900000820E072322000F08FFA002233212046C6
:1009100000F0A2F800223321204600F09DF80520C7
:1009200000F082FA00223221204600F095F80520DE
:1009300000F07AFA00222021204600F08DF80520F0
:1009400000F072FAE1790022204600F085F8217A61
:100950000022204600F080F8617A0022204600F054
:100960007BF8A17A0022204600F076F800220121CF
:10097000204600F071F820460022BDE81040022118
:1009800000F06AB830B4447900238C4201D8641E68
:10099000E1B28479944201D8641EE2B232B1012AF4
:1009A00006D0022A07D0032A08D00AE00B4608E046
:1009B00001F1400304E001F1140301E001F15403EB
:1009C000DBB2054CA170E270227030BC43F08001B4
:1009D000002200F041B8000001000020012200F0D8
:1009E0003BB800002DE9F04107460C460846FFF7EA
:1009F000ECFB174E707023E0002508E021780029F9
:100A000021D03846641CFFF7E9FF6D1CEDB2B078C9
:100A1000C0F11400A842F1DC2078002813D030780F
:100A200038B1012807D002280FD00328E4D10022D2
:100A300002E0012200E0022200210648FFF7A2FFA7
:100A400020780028D8D1BDE8F0810322F4E7000027
:100A5000010000205C0000207CB506460807040E5B
:100A6000F07A01F0F00518B145F0080544F00804EB
:100A7000012A01D02AB108E045F0010544F0010443
:100A800003E025F0010524F0010445F004008DF891
:100A90000400012000F0C8F98DF8055044F004006E
:100AA0008DF80600012000F0BFF94FF47A708DF840
:100AB000074000903179042301AA306800F040FD1E
:100AC0007CBD704710B5202000F0CAF9BDE8104089
:100AD0004FF4007000F0C4B972B6FEE701A003F055
:100AE000C1B80000403B493B323B210A0D000000E9
:100AF00001A003F0B7B80000403B493B313B210A5D
:100B00000D00000001A003F0ADB80000403B493BE0
:100B1000333B210A0D000000F8B50024009490F842
:100B200024202546012A12D0012280F824204A6878
:100B30001F23072A0DD20668776B521E02EB820232
:100B400093409F430B6893401F43776319E0022053
:100B5000F8BD06680D2A0AD2376BD21F02EB82025B
:100B600093409F430B6893401F43376309E0F76A44
:100B70000D3A02EB820293409F430B6893401F4360
:100B8000F7620A68072306680A2A0AD3F7680A3A4E
:100B900002EB420293409F438B6893401F43F760F0
:100BA00008E0376902EB420293409F438B68934011
:100BB0001F4337610A68102A01D0112A20D1124B35
:100BC00002689A4217D193681B0219D4936843F4C0
:100BD000000393600968102912D10C490C4A096876
:100BE000B1FBF2F101EB8101490000E0491E0091E7
:100BF0000029FBD104E0816A41F0200181620124D7
:100C000080F824502046F8BD002401402C0000202C
:100C100040420F002DE9F0414FF0000704003D462F
:100C20007ED0A06A002628B9E66284F824602046B7
:100C300000F07EF82046FFF749FDA16AC90600D4FE
:100C400020B1A06A40F01000A06269E0A16A21F41E
:100C5000885141F00201A1626268E169237B0A4385
:100C600047EA43010A43A1684FF48077B94209D0AB
:100C7000012907D05FF0000194F814C0BCF1010F06
:100C800002D00AE03946F7E7F3B1A36A43F0200344
:100C9000A362E36A43F00103E3622368D3F804C06C
:100CA0002CF4694C4CEA010CC3F804C021688B6831
:100CB000DFF870C003EA0C0313438B60A168B942EC
:100CC0000BD0012909D00CE0DFF85CC0A3690CEB64
:100CD00043330B4343F40061DFE7218A0D05A5F59B
:100CE00080152168CB6A23F470032B43CB62216803
:100CF00089680E4B1940914208D1E662A16A21F041
:100D0000020141F00101A162BDE8F081A06A20F07A
:100D1000020040F01000A062E06A40F00100E062D2
:100D20000120F1E7FDF7E1FF00E0FFFFFE0E1FFFEE
:100D300000B585B0002100910191029103910068F6
:100D40000E49884218D10E48816941F400718161D1
:100D5000816901F400710491816941F004018161AC
:100D60008069694600F004000490F02000900320A0
:100D70000190044800F080F805B000BD0024014057
:100D8000001002400008014010B590F82110002426
:100D9000022903D00421816301243DE001680A682F
:100DA00022F00E020A6001680A6822F001020A605D
:100DB0001A4A0168914201D1012121E0174A1432F7
:100DC000914201D110211BE0144A2832914201D1F5
:100DD000891515E0114A3C32914201D189140FE086
:100DE0000E4A5032914202D14FF4803108E00B4A52
:100DF0006432914202D14FF4801101E04FF08071D2
:100E0000064A083A5160012180F82110002180F83B
:100E10002010416B01B18847204610BD08000240F8
:100E200090F821007047000070B5044600F022F9E8
:100E30000546601C02D004480078044400F01AF90A
:100E4000401BA042FAD370BD20000020B0F5007F07
:100E500002D102490120C87070470000180000202C
:100E6000044910B50A68024202D00860FFF7EEFF9D
:100E700010BD0000140401402DE9F84FDFF8B891CF
:100E8000002409F1040A0AF1040B23460F270BF191
:100E9000040EC9E00125A5402A40AA427DD1674E33
:100EA000D1F804C0ACEB0608B44532D014DCBCF178
:100EB000030F3AD009DCBCF1000F2AD0BCF1010FBE
:100EC0001CD0BCF1020F31D11DE0BCF1110F17D0C5
:100ED000BCF1120F2AD119E0B8F5881F19D006DC31
:100EE000B8F5803F15D0B8F5801F1FD111E0B8F5D7
:100EF000001F0ED0B8F5041F18D10AE0CB6815E02A
:100F0000CB681B1D12E0CB6808330FE0CB680C33B5
:100F10000CE08B682BB1012B4FF0080303D0456127
:100F200004E0042302E0056100E00023FF2A01D869
:100F3000064601E000F104064FEA840501D9A5F157
:100F40002005D6F8008007FA05FC28EA0C0803FA09
:100F500005F548EA0508C6F800804D68ED0062D541
:100F6000374DAE6946F00106AE61AD6924F0030667
:100F700005F001050095334D06EB050CDCF8085033
:100F8000A607360F07FA06F825EA0805DFF8B88045
:100F9000404503D14FF0000817E044E0DFF8AC8093
:100FA000404502D14FF001080FE0DFF8A480404532
:100FB00002D14FF0020808E0DFF89880404502D1E6
:100FC0004FF0030801E04FF0040808FA06F848EA79
:100FD0000508CCF808804D68D9F80060ED034D464F
:100FE00001D5164300E096432E604D68DAF80060A4
:100FF000AD03554601D5164300E096432E604D687B
:10100000DBF80060ED025D4601D5164300E0964333
:101010002E604D68DEF80060AD02754601D51643BE
:1010200000E096432E60641C0D682A46E5407FF47C
:1010300031AFBDE8F88F000000040140000011103E
:10104000001002400000014000080140000C014077
:101050000010014000140140C26821EA02030A4066
:1010600043EA0241016170470AB101617047090416
:10107000FBE7000001488068704700002000002066
:10108000704770472DE9F041016804464A694E688F
:1010900090F83E000025D743FA050BD4F243D20561
:1010A00008D46FF4807201254A6121680A6842F40D
:1010B00000420A60B90508D4F143C90505D4226885
:1010C0006FF4007145F002055161790525D4F143B3
:1010D000C90522D4638D94F83D10226B202808D1D5
:1010E0003BB9212910D029290ED0282901D1212A44
:1010F0000AD022686FF48061516145F00405102820
:1011000006D0402804D008E0204601F05DFF04E04E
:101110002068016841F400710160380508D4F0438B
:10112000C00505D421686FF4006045F008054861EA
:10113000002D07D0206C284320642046BDE8F041F4
:1011400001F07CBBBDE8F0812DE9F041026800248C
:101150005168C76A90F83E5090F83D60102D1CD041
:10116000402D1AD0036C002B7ED053694FF0280518
:10117000DB439F0779D4CF43BF0576D4016C01B11F
:10118000946990F83D3000219D430B466ED0C91EF6
:10119000516180F83C30BDE8F081946953694FF4A7
:1011A0002A0CDB435FEAC37E4FF02A4604D0674532
:1011B000F1D0B742EFD010E0CF43BF050DD4C16AE4
:1011C000614501D1012103E0C16AB14201D1082189
:1011D000C162BDE8F04101F061BE1E0716D4CE43E6
:1011E000B60513D4416CC9B21161416B11B9826B60
:1011F000002AD0D0896A19B9816B896A0029CAD0BE
:101200000068416841F400614160C4E79E0706D46C
:10121000CE43B60503D4BDE8F04101F093BDE443ED
:10122000526864074FEA02521BD4002AB3DB1A0645
:1012300008D4CA43520505D45A0705D5BDE8F04184
:1012400001F024BD5A07A6D4C9438905A3D4102DA3
:1012500003D0BDE8F04101F067BEBDE8F04101F008
:10126000DBBC002A97DB02E015E029E015E05A0616
:1012700008D4CA43520505D45A0705D5BDE8F04144
:1012800001F008BC5A0786D4C943890583D4BDE858
:10129000F04101F096BB946967E7556825F48065D5
:1012A0005560E243540700D50121120601D5828919
:1012B00000E0028B80F83C3092B2FFF7E2FE6AE772
:1012C000DC0606D4CC43A40503D4BDE8F04101F00C
:1012D000BDBE212E27D0292E25D05C0655D4CC4367
:1012E000640552D45B0752D590F83D10438D002B16
:1012F0008BD01269436A1A70426A521C4262428D54
:10130000521E4285428D002AD9D12A29D7D101689F
:101310004A6822F480624A602221016380F83D50CD
:1013200000F002FA37E71C0623D4CC43640520D42E
:101330005B0720D590F83D10438D002BBFD0436A4A
:101340001B781361426A521C4262428D521E4285D2
:10135000428D002AB3D12929B1D101684A6822F40B
:1013600080624A602121016380F83D5000F0DDF980
:1013700011E75B07A3D4C9438905A0D4418D002997
:101380009DD0416A097811610AE05B0797D4C9438F
:10139000890594D4418D002991D01169426A117058
:1013A000416A491C4162418D491E4185F3E67047FF
:1013B00070B5040025D094F83D00002520B984F8CC
:1013C0003C50204600F054F9242084F83D00206869
:1013D000016821F0010101602068016841F40041C9
:1013E00001602068016821F40041016000F042FBC7
:1013F0004D4A6168914201D84C4900E04C4988420D
:1014000001D2012070BD4B492368B0FBF1F15E6849
:1014100026F03F060E435E606368934206D94FF4A0
:10142000967359434FF47A73B1FBF3F12368491C67
:101430001E6A26F03F06314319626168914210D856
:101440004900401EB0FBF1F2521CC2F30B02042A09
:1014500001D2042022E0B0FBF1F0401CC0F30B00ED
:101460001CE0A268F2B301EBC10303EB0116431EBB
:10147000B3FBF6F35B1C43F480431B0549D092B3E6
:1014800001EBC10202EB0111401EB0FBF1F0401C68
:10149000C0F30B0040F4804040F400402168CA696A
:1014A0004CF6FF739A431043C861D4E90710014317
:1014B0002068026822F0C00211430160D4E90301F0
:1014C00001432068826848F2FF339A4311438160E8
:1014D000D4E9050108432168CA6822F0FF021043DD
:1014E000C86001E00EE016E02068016841F00101EB
:1014F00001602564202084F83D00256384F83E5077
:10150000002070BD01EB4106431EB3FBF6F35B1CEC
:10151000B3E70120C2E701EB4101401EB0FBF1F04F
:10152000401CC0F30B00B7E7A086010080841E00BA
:1015300000093D0040420F007047704770470000AF
:101540002DE9F84F1F4690468A460446DDF828905C
:10155000FFF790FD054694F83D0020287FD1192320
:10156000012240492046009501F044FE002876D132
:1015700094F83C00012872D0012084F83C002068D7
:101580000168C90703D1016841F0010101602068C9
:10159000016821F400610160212084F83D001020E1
:1015A00084F83E0000262664C4F824806785608D98
:1015B00020852D48E0622B464A465146204601F0E0
:1015C000DDFA90B9206841698069009036E02A46CA
:1015D0004946204601F08DFE50B1206C042804D10C
:1015E0002068016841F4007101600120BDE8F88FB6
:1015F000606A216800780861606A401C6062618DE1
:10160000491E6185218D491E89B221852268536951
:10161000DB435B070BD451B100781061606A401C5A
:101620006062608D401E6085208D401E20852A46A8
:101630004946204601F0B8FD0028CED1208D002873
:10164000C5D154F83D0B016841F4007101602020C0
:1016500004F81E09E67766770020C7E7FFE7022057
:10166000C4E70000020010000000FFFF7047704751
:1016700030B585B000210091019102910391264D72
:101680000368264C122103222548AB4228D1A369C6
:1016900043F00803A361A369039203F008030493D2
:1016A000C023CDE900316946FFF7E6FBE06940F46D
:1016B0000010E061E069002200F4001004900121B4
:1016C0001F2000F099F81F2000F088F80022012167
:1016D000202000F091F8202000F080F805B030BD07
:1016E000104DAB42FAD1A36943F00803A361A3698B
:1016F000039203F0080304934FF44063CDE90031F3
:101700006946FFF7B9FBE06940F48000E061E069F9
:1017100000F480000490E1E7005400400010024013
:10172000000C014000580040704770470248816833
:10173000027811448160704720000020074810B5EE
:10174000016841F010010160032000F075F80020ED
:1017500000F006F800F024F8002010BD0020024040
:1017600070B50D4D04464FF47A712878B1FBF0F056
:101770000A490968B1FBF0F000F0F6FB48B9102CFB
:1017800007D200222146501E00F036F800206C607F
:1017900070BD012070BD0000200000202C00002042
:1017A0000C4808B5816941F001018161816901F04E
:1017B00001010091C16941F08051C161C06900F02F
:1017C000805000900448416821F0E06141F00071D0
:1017D000416008BD0010024000000140002809DB04
:1017E00000F01F02012191404009800000F1E0203B
:1017F000C0F8001170470000F0B40E4B1B680C4697
:10180000C3F30223C3F10705042D00D90425191DD4
:10181000072901D2002300E0DB1E012606FA05F1AC
:10182000491E214099409E40761E16403143F0BC2F
:1018300002F03CBA0CED00E0064900F0070208682F
:101840004FF6FF03184040EA0220034A10430860A5
:10185000704700000CED00E00000FA052DE9F843A8
:1018600005460078354CC00754D0E0690026C0001A
:1018700008D4E06940F08050E061E069012600F0A2
:10188000805000902E480168C90512D40168804636
:1018900041F480710160FFF7EDFB074605E000BFF2
:1018A000FFF7E8FBC01B642823D8D8F80000C00568
:1018B000F6D5206A10F4407021D0A98801F4407157
:1018C00081421CD0206A1F49012220F440700A6026
:1018D00000220A602062C00711D0FFF7CBFB074649
:1018E00041F2883808E000BFFFF7C4FBC11B414547
:1018F00002D90320BDE8F883206A8007F4D5206A66
:10190000696820F44070084320621EB1E06920F04D
:101910008050E0612878800705D56068A96820F4C8
:101920004040084360602878C00605D56068E968D3
:1019300020F48000084360600020DBE700100240D4
:1019400000700040400442422DE9F0470F46050078
:1019500061D0434E306800F00700B84209D23068C9
:1019600020F0070038433060306800F00700B842CC
:1019700051D128683B4C810712D5400703D56068D8
:1019800040F4E06060602878000703D5606840F4A8
:10199000605060606068A96820F0F00008436060F3
:1019A0002878C00728D06868012810D0216802284C
:1019B00010D0890700292EDA616821F00301014364
:1019C0006160FFF757FB804641F288390DE02168DE
:1019D0008903EFE78901EDE7FFF74CFBA0EB080176
:1019E000494502D90320BDE8F0876068696800F0C6
:1019F0000C00B0EB810FEFD1306800F00700B84267
:101A00000BD9306820F0070038433060306800F0B0
:101A10000700B84201D00120E5E72878400705D546
:101A20006068E96820F4E060084360602878000797
:101A300006D56068296920F4605040EAC100606002
:101A400000F038F86168084AC1F30311515CC840DE
:101A50000649086006480068FFF782FE0020C2E7DA
:101A60000020024000100240884600082C000020A0
:101A7000240000200448054900684968044AC1F36D
:101A80000221515CC84070472C0000200010024029
:101A9000984600080448054900684968044AC1F3AB
:101AA000C221515CC84070472C0000200010024049
:101AB0009846000812A185B00FC98DE80F0014A048
:101AC000144A006804905168134801F00C03042B79
:101AD00010D0082B0ED1C1F38343C9031DF80300B6
:101AE0000AD5516804AAC1F34041515C0A4A5043E7
:101AF000B0FBF1F005B0704708494843FAE7000031
:101B000002030405060708090A0B0C0D0E0F10103E
:101B1000010200000010024000127A0000093D009E
:101B20002DE9F84F040070D02078C04DC00749D08F
:101B30006868C0F38100012807D06868C0F381009D
:101B4000022809D16868C00306D52868800339D502
:101B500060680028E7D035E06068B0F5803F0BD0C2
:101B600010B1B0F5A02F11D0286820F48030286083
:101B7000286820F4802002E0286840F48030286043
:101B8000606890B1FFF776FA06460AE0286840F4EC
:101B900080202860F0E700BFFFF76CFA801B642804
:101BA00073D828688003F7D50CE0FFF763FA064680
:101BB00005E000BFFFF75EFA801B6428F0D82868B4
:101BC0008003F7D420789A4E80074FF001094FF038
:101BD000000839D5686810F00C0F07D06868C0F3AA
:101BE0008100022809D16868C00306D428688007EC
:101BF00014D52069012808D110E02069B0B1C6F8D9
:101C00000090FFF737FA074605E00AE1FFF732FADE
:101C1000C01B0228C4D828688007F7D528686169E6
:101C200020F0F80040EAC10028600DE0C6F800800E
:101C3000FFF720FA074604E0FFF71CFAC01B022852
:101C400023D828688007F7D4207800072CD5794856
:101C5000A169D9B1C0F80090FFF70CFA074604E07B
:101C6000FFF708FAC01B02280FD8686A8007F7D56B
:101C700071484FF4FA510068B0FBF1F0009000BFDA
:101C80000098411E0091FAD20EE080E0C0F800807A
:101C9000FFF7F0F9074604E0FFF7ECF9C01B022854
:101CA00075D8686A8007F7D42078400760D5E8695E
:101CB0000027C00008D4E86940F08050E861E86976
:101CC000012700F0805000905C480168C90513D4DA
:101CD0000168834641F480710160FFF7CBF98246C9
:101CE00006E000BFFFF7C6F9A0EB0A0064284ED853
:101CF000DBF80000C005F5D5E06801280AD008B17E
:101D0000052813D0286A20F001002862286A20F0F4
:101D1000040002E0286A40F001002862E06841F215
:101D2000883B98B1FFF7A6F982460BE0286A40F09D
:101D300004002862EEE700BFFFF79CF9A0EB0A0160
:101D400059455AD8286A8007F6D50CE0FFF792F972
:101D5000824605E0FFF78EF9A0EB0A0159454CD801
:101D6000286A8007F6D41FB1E86920F08050E86146
:101D7000E06988B36968C1F38101022944D002286F
:101D8000C6F8608004D0FFF775F9044638E034E007
:101D9000FFF770F9074604E0FFF76CF9C01B022853
:101DA0002BD828688001F7D4206AB0F5803F05D190
:101DB0006868A16820F4003008436860D4E908012D
:101DC0000843696821F4741108436860C6F860909C
:101DD000FFF750F9044606E025E000BFFFF74AF997
:101DE000001B022809D828688001F7D51BE000BF36
:101DF000FFF740F9001B022802D90320BDE8F88F45
:101E000028688001F4D40EE00128F7D06868226ABF
:101E100000F48031914204D1616A00F4701088426C
:101E200001D00120EAE70020E8E7000000100240AE
:101E300000004242800442422C000020007000401A
:101E400070B5040009D0606A002540B12561656164
:101E5000A56294F8510040B10CE0012070BD6068AB
:101E6000B0F5827FF4D0E561F2E784F85050204667
:101E700000F040F8022084F851002068016821F049
:101E800040010160A088218900F4827001F40441BE
:101E90000843A18901F400610843217C01F002019B
:101EA0000843217D01F001010843218B01F40071F9
:101EB0000843217F01F03801084394F8201001F015
:101EC00080010843218D01F4005108432168086016
:101ED000A069042101EA1040216848602068C169B6
:101EE00021F40061C1616565012084F85100002082
:101EF00070BD000030B585B00024009401940294B8
:101F0000039400681549884225D11548C16941F4F8
:101F10008041C161C16901F480410491816941F04E
:101F20000801816180690F4D00F0080004904FF4B2
:101F3000204000900220019003200390694628462B
:101F4000FEF79AFF4FF48040CDE900046946284629
:101F50000294FEF791FF05B030BD0000003800404C
:101F600000100240000C014010B5401EB0F1807F0F
:101F700001D3012010BD4FF0E02460610F216017F4
:101F800001F094FE0020A06107202061002010BD18
:101F90007047704770B590F83C20012A26D0012484
:101FA00080F83C40022280F83D2003685A689D6812
:101FB00022F070060A6832435A600D4B02689A425A
:101FC00008D0B2F1804F05D00A4B9A4202D00A4B9A
:101FD0009A4204D1496825F080031943916080F842
:101FE0003D40002180F83C10084670BD022070BDC5
:101FF000002C0140000400400008004010B504001F
:1020000003D094F83D0010B107E0012010BD00207E
:1020100084F83C00204600F01FF8022084F83D00C0
:10202000211D206801F07EFC012084F8460084F820
:102030003E0084F83F0084F8400084F8410084F8B2
:10204000420084F8430084F8440084F8450084F892
:102050003D00002010BD000008B50068B0F1804FC1
:1020600012D10A48C16941F00101C161C069002271
:1020700000F00100009002211C20FFF7BDFBBDE82D
:1020800008401C20FFF7AABB08BD0000001002405A
:1020900090F83D10012901D001207047022180F8FD
:1020A0003D100168CA6842F00102CA6000680B492D
:1020B000884208D0B0F1804F05D00949884202D04B
:1020C0000849884204D1816801F00701062903D03C
:1020D000016841F00101016000207047002C0140BF
:1020E000000400400008004070B5044690F83C0031
:1020F000012817D0012584F83C50022084F83D00C7
:102100002068826822F0770222F47F4282600868A9
:10211000502830D00DDC20284DD005DC98B3102895
:102120003BD148E0022070BD302844D0402834D153
:1021300039E0602828D0702806D0B0F5805F2CD018
:10214000B0F5005F29D10AE0CB68D1E90121206810
:1021500001F01EFC2068816841F0770109E0CB683E
:10216000D1E90121206801F013FC2068816841F465
:102170008041816011E0CA684968206801F01AFC5A
:102180005021206807E016E0CA684968206801F01D
:1021900022FC6021206801F005FC84F83D500020FD
:1021A00084F83C0070BDCA684968206801F002FCF0
:1021B00040212068EFE7226801461046EBE77047B0
:1021C00070B50446006801694FF00005C9438907EE
:1021D00015D4C168C943890711D4E91E01610120E2
:1021E0002077206880698007204602D0FFF7E7FF4C
:1021F00004E000F098F8204600F096F82577206873
:102200000169C943490717D4C168C943490713D4B1
:102210006FF004010161022020772068806910F4CA
:10222000407F204602D0FFF7CAFF04E000F07BF8B1
:10223000204600F079F8257720680169C94309072D
:1022400016D4C168C943090712D46FF008010161AF
:10225000042020772068C0698007204602D0FFF75D
:10226000AEFF04E000F05FF8204600F05DF825774F
:1022700020680169C943C90617D4C168C943C906A2
:1022800013D46FF010010161082020772068C06925
:1022900010F4407F204602D0FFF791FF04E000F0E9
:1022A00042F8204600F040F8257720680169C943CC
:1022B000C90708D1C168C943C90704D1891E016192
:1022C000204600F033F820680169C943090609D4A3
:1022D000C168C943090605D46FF080010161204639
:1022E000FFF756FE20680169C943490609D4C16851
:1022F000C943490605D46FF040010161204600F052
:1023000031F820680169C94389060BD4C168C94303
:10231000890607D46FF0200101612046BDE87040B6
:10232000FFF737BE70BD7047704700000068B0F11E
:10233000804F0ED10A480178491CC9B201700129A9
:1023400008D0022908D0032908D0042901D100218E
:1023500001707047FEF7CCBBFEF7C0BBFEF7D2BBE7
:10236000180000207047704770B502680446106876
:10237000D168536910F00F0F52D003F0010501F43A
:1023800090762E435FD0C20705D0CA0503D5E26B15
:1023900042F00102E263420705D5DA0703D0E26B9F
:1023A00042F00202E263820705D5DA0703D0E26B4E
:1023B00042F00402E263020707D501F020022A433B
:1023C00003D0E26B42F00802E263E26B002A33D0F2
:1023D000800604D5880602D5204601F024FB20683B
:1023E0004069E16BC0F38010090700D428B3204690
:1023F00001F00BFB2068416949061AD5416921F0BB
:1024000040014161606BA0B12D494163606BFEF7F3
:10241000BBFC002810D0606B416BBDE870400847E2
:10242000830610D58B060ED52046BDE8704001F01E
:10243000FABA2046FFF797FF70BD2046FFF793FFDB
:102440000020E06370BD03062BD50B0629D594F858
:1024500039002128F6D1A068B0F5805F01D120694C
:10246000B0B1206A411C2162216800784860E08C8C
:10247000401E0004000CE084E4D12068C16821F013
:102480008001C1602068C16841F04001C16070BD39
:10249000206A0088C0F308005060206A801C206217
:1024A000E5E74006F3D54806F1D5D168204621F08E
:1024B0004001D160202184F8391000F052F970BD3C
:1024C000FB39000870B5040004D094F839000025E9
:1024D00010B106E0012070BD84F83850204600F0AD
:1024E00023F8242084F839002068C16821F40051C1
:1024F000C160204601F0DEFA2068016921F49041B4
:1025000001612068416921F02A0141612068C168A8
:1025100041F40051C160E563202084F8390084F85B
:102520003A00002070BD000070B586B00024009411
:102530000194029403942E4E03682E490220032234
:102540002D4DB34226D18B6943F480438B618B6957
:1025500003F4804304938B6943F004038B6189691E
:10256000039201F0040104910102CDE900106946D3
:102570002846FEF781FC2815CDE900046946284667
:102580000294FEF779FC002211462520FFF734F96A
:10259000252028E0194EB34227D1CB6943F40033FC
:1025A000CB61CB6903F4003304938B6943F00403DC
:1025B0008B618969039201F0040104910421CDE942
:1025C000001069462846FEF757FC0820CDE90004B4
:1025D000694628460294FEF74FFC00221146262049
:1025E000FFF70AF92620FFF7F9F806B070BD0000E2
:1025F0000038014000100240000801400044004043
:1026000090F83A30202B22D1F9B1F2B190F838305D
:10261000012B1CD081628285C2850021C1632222E8
:1026200080F83A2080F838100168CA6842F4807255
:10263000CA6001684A6942F001024A610068C168E3
:1026400041F02001C1600020704701207047022046
:102650007047000030B40068114988421DD1114A0A
:10266000114C0023117929B900202354401CC0B219
:102670006428FAD30B48401D00780D2803D060541D
:10268000491C117102E013710120507005490122AB
:1026900030BC491D0548FFF7B3BF30BC7047000090
:1026A000003801401800002008010020E40200204A
:1026B0002DE9F843044690F839001F4616460D46AA
:1026C00020284CD1C5B1BEB194F83800012846D0BD
:1026D000012084F838004FF00008C4F83C80212025
:1026E00084F83900FEF7C6FCA6848146E684A0681B
:1026F000B0F5805F03D004E00120BDE8F8832069D5
:1027000028B12E465FF0000584F838800EE00026E0
:10271000FAE78021204601F029FAA0B9AEB116F8F7
:10272000010B21684860E08C401EE084E08C4B4641
:102730004FF0000200970028EBD14FF040012046F7
:1027400001F014FA30B10320D7E735F8020BC0F3DB
:102750000800E6E7202084F839000020CDE70220B9
:10276000CBE77047FEE700000148FEF78BBC000096
:102770009C0100200148FEF7E7BC00009C010020FE
:1027800038B5406A002190F83D202B4B46F2A81442
:102790001B68B3FBF4F3C3EBC30303EB83030093A6
:1027A0003BB15B1E009303681B689B0505D5009B2E
:1027B000F6E7036C43F020030364436B03B19962B3
:1027C000836B03B1996203681C6824F480641C6005
:1027D0004185436B03B15963836B03B1596303684C
:1027E0001C6824F001041C6090F83D402023602CFC
:1027F0000BD0282434EA02020FD080F83D3080F854
:102800003E1000BFFEF7D3FD38BD80F83D3080F8A4
:102810003E100164FEF734FC38BD0268136843F0D3
:10282000010313600268136843F48063136001635B
:1028300080F83D40E6E700002C00002070B504461B
:1028400090F83D0094F83E10102901D0402906D19F
:10285000222804D121680A6822F400620A60282133
:1028600031EA00024FF000054FF0200626D0216823
:102870004968090505D4602803D084F83D6084F8D0
:102880003E50256320684168090537D5416821F429
:1028900000614160606B3D4990F82120012A11D010
:1028A0004163606BFEF770FA38B32068016821F06D
:1028B0000101016084F83D60606B1CE0256384F8D1
:1028C0003D10DFE7A06B4163A06BFEF75DFAA0B19E
:1028D00020684169C943490605D40069616A0870E6
:1028E000606A401C60622068016821F0010101609B
:1028F00084F83D60A06B416B884710E094F83D1070
:10290000602910D04169C943490605D40069616A4C
:102910000870606A401C60622046FEF748FD206C2B
:10292000C1071CD115E084F83D6025644169C943A5
:10293000490605D40069616A0870606A401C6062DB
:102940002068016821F0010101602046FEF798FB34
:10295000E5E7810703D4410701D4000704D52068C7
:10296000416821F4E061416094F83D00216C490721
:102970000BD5282809D10648E062256384F83D601C
:1029800084F83E502046FEF7D7FD70BD8127000831
:102990000000FFFF01684A69D24352050FD46FF46B
:1029A00080624A61002140F8301F20224273817307
:1029B000026942F0040202610173012070470020A5
:1029C000704710B5C26A438D0168042B06D0438D51
:1029D000032B08D0438D022B1DD012E04A6822F44D
:1029E00080624A600CE04B6823F480634B60042AE9
:1029F00006D0022A04D001680A6822F480620A60C4
:102A000001680969426A1170416A491C4162418D3D
:102A1000491E418510BD012A30D0102A2ED0042A2B
:102A200030D0022A2ED00A6842F400720A6001688F
:102A30000969426A1170416A491C4162428D521E05
:102A40004285026812690A70416A491C4162418DDF
:102A5000491E418501684A6822F440724A6020217B
:102A600080F83D1090F83E200021402A80F83E106A
:102A70000CD012210163FEF760FD10BD0A6822F43C
:102A80008062D3E70A6842F48062CFE70163FEF711
:102A9000EDFD10BD38B590F83D10222914D1418DBF
:102AA000032912D901680969426A1170416A491CF7
:102AB0004162418D491E4185418D032904D1006841
:102AC000416821F48061416038BDC26A022AFBD0AE
:102AD000012901D00029F7D1274946F2A813002285
:102AE0000968B1FBF3F101EB81010091016820233A
:102AF000009C641E009422D00C68A405F8D40C68D5
:102B000024F480640C6001684C6824F4E0644C6038
:102B100001680969446A2170416A491C4162418D1A
:102B2000491E418580F83D3090F83E1080F83E20E7
:102B300040291DD012210163FEF7FFFC38BD046C53
:102B400044F0200404644C6824F4E0644C600168A0
:102B50000969446A2170416A491C4162418D491EDC
:102B6000418580F83D3080F83E20FEF720FC38BDDE
:102B70000263FEF77BFD38BD2C000020F8B504464B
:102B8000C06A1E460D461746082807D0012805D002
:102B900010F5803F02D0206B122804D12068016814
:102BA00041F480710160134600224FF0011120466C
:102BB000009600F01FFB40B120680068C00502D5F8
:102BC0004FF4007020640320F8BD2069B0F5804FF9
:102BD0000ED00620216800EAD51040F0F000086110
:102BE00033463A460B49204600F038FB78B902E0FC
:102BF00005F0FE0000E0E8B22168086105493346AF
:102C00003A46891F204600F029FB0028DCD001202D
:102C1000F8BD00000800010010B5C16A90F83D2021
:102C2000212A0BD1428D52B1416A026809781161A3
:102C3000416A491C4162418D491E418510BD0022F7
:102C40002023082910D020290ED011F5803F0BD069
:102C500001684C6824F4E0644C601121016380F841
:102C60003E2080F83D300EE001684C6824F4E064BA
:102C70004C6001680C6844F400740C60026380F8D6
:102C80003D3080F83E20FEF759FC10BD10B590F89D
:102C90003D1090F83E30C26A048DB4B1212903D0B2
:102CA000402B11D122290FD1418DE1B390F83E1074
:102CB000402942D0416A026809781161416A491C81
:102CC0004162418D491E418510BD2129E8D1202353
:102CD0000021082A13D0202A11D012F5803F0ED0EF
:102CE0000268546824F4E06454601122026380F89E
:102CF0003E1080F83D3000BFFEF720FC10BD02689A
:102D0000546824F4E06454600268146844F4007465
:102D10001460016380F83D3090F83E2080F83E104A
:102D2000402AE9D100E002E0FEF7A1FC10BD0068F6
:102D3000416821F48061416010BDBDE8104000F0A1
:102D4000F3B8000078B590F83E50C26A046B90F872
:102D50003D6000230168222E73D1066D0EB9402D0F
:102D60006FD0056D1DB90569B5F5404F1BD0458D78
:102D700095B3468D484D012E20D0448D022C4DD068
:102D80000C6844F480640C6001684C68240579D5B3
:102D9000AA4273D0012A71D0082A6FD0102A6DD0B0
:102DA000202A6BD06EE04A698A6900920A6842F470
:102DB00080720A60016D491C016578BDAA4214D178
:102DC0000A6822F480620A6001684A68120504D524
:102DD0000A6822F4806217E0FFE74A698A69009274
:102DE0000A6842F400720A6050E0082A10D0202AD3
:102DF0000ED0122C0AD0042A03D0022A01D0102AA5
:102E0000E6D10A6842F480620A603BE0012ADFD022
:102E10000A6822F480620A600168DEE7042A11D0A1
:102E2000022A0FD0102A0DD00C6844F400640C6004
:102E300001684C698C6900940C6824F480640C600F
:102E400008E025E00C6844F480640C6001684C697B
:102E50008969009101684C68240517D5AA4207D0FA
:102E6000012A05D0082A03D0102A01D0202A0DD12A
:102E70004A6842F480524A6008E0FFE74A6842F438
:102E800080524A6001684A6989690091036578BD8A
:102E900048698869009078BD0000FFFF90F83E10F7
:102EA000402910D00169B1F5804F19D0016DA9B347
:102EB000016D012910D1416C5FF0F10201F4407104
:102EC00042EAD11106E0016D0029416C05D0C9B27A
:102ED00041F0010100680161704701F0FE01F9E76E
:102EE00090F83D102129416C09D0C9B241F001018F
:102EF00002681161416B29B1896A49B902E001F0A8
:102F0000FE01F5E7816B0029E6D0896A0029E3D04C
:102F10000068416841F4006141607047FFE7416C1F
:102F2000F02201F44071CBE710B590F83D10026D2E
:102F300022B3026D012A2FD0026D022A1DD122294F
:102F400031D0428D0AB1212933D0428D002A14D1CB
:102F5000212912D101684A6822F4E0624A600168BE
:102F60000A6842F400720A6000210163202280F89E
:102F70003D2080F83E10FEF77AFB10BDC16C0129A0
:102F8000816C02D0C1F3072108E00268C9B2116167
:102F9000016D891C016510BD816CC9B202681161A7
:102FA000016D491CF6E70068016841F48071016019
:102FB00010BD416A026809781161416A491C416289
:102FC000418D491E418510BD2DE9F04190F83D40ED
:102FD000C26A002320261C4F01686FF48065082A0E
:102FE00001D0202A01D1282C04D0212C16D04D61EB
:102FF000BDE8F081C7624A6822F4E0624A60016875
:103000004D6101680A6822F480620A60036380F8F7
:103010003D6080F83E30FEF78FFAE9E7C762212273
:10302000026380F83D6080F83E304A6822F4E06236
:103030004A6001684D6101680A6822F480620A6092
:10304000FEF773FBD4E700000000FFFFF8B590F82F
:103050003D6004460068416821F4E06141602068F9
:10306000002541690091016841F00101016020687B
:10307000016821F48061016020684168090520D55C
:10308000474F222E48D02A2E46D0616B09684968E6
:103090006185618D19B1216C41F0040121644168A1
:1030A00021F400614160606BFDF7BAFE012808D091
:1030B000606B4763606BFDF767FE10B1606B416B3F
:1030C0008847608D08B320684169C943490708D41F
:1030D0000069616A0870606A401C6062608D401E11
:1030E000608520684169C943490608D40069616A5E
:1030F0000870606A401C6062608D401E6085608D53
:1031000018B1206C40F004002064206C00B320460D
:10311000BDE8F840FFF792BBA16B0968496861857B
:10312000618D19B1216C41F004012164416821F4E1
:1031300000614160A06BFDF773FE0128C1D0A06B58
:103140004763A06BFDF720FE0028BAD0A06BB6E75E
:103150002A2E06D12563282084F83D002046FEF75C
:10316000E3FA94F83D10202028290DD0216B222964
:1031700001D0222E07D1256384F83D0084F83E500B
:103180002046FEF7D1FAF8BD0649E162256384F8CE
:103190003D0084F83E502046FEF7CEF9F8BD000011
:1031A000812700080000FFFF70B516460D46044653
:1031B0000DE02046FFF7EEFB08B1012070BD681C52
:1031C00005D0FDF757FF801BA84207D835B120680E
:1031D0004069C0434007ECD4002070BD002044F893
:1031E000300F20216173A073216941F0200121611A
:1031F0002073E2E72DE9F0471E4690460D4604464F
:10320000C1F30747DDF8209008E0701C06D0FDF7F9
:1032100031FFA0EB0900B0420FD876B12068012F32
:1032200018D0806925EA00000004000C14D00021A9
:103230004145EAD00020BDE8F087002044F8300F77
:1032400020216173A073216941F020012161207365
:103250000120F0E74069E5E70121E9E72DE9F047C2
:103260009A4691460E46044600254FF02008C1F3C9
:10327000074725E020684069C043400514D4206812
:10328000016841F40071016021686FF48060486159
:10329000256384F83D8084F83E50206C40F00400A3
:1032A000206484F83C501FE0B9F1FF3F08D0FDF7DF
:1032B000E1FEA0EB0A0149450CD8B9F1000F09D095
:1032C0002068012F13D0806926EA00000004000C5A
:1032D0000BD0CFE744F8305F84F80D80A5732069E8
:1032E00040F02000206125730120BDE8F08740698F
:1032F000EAE770B516460D4604460DE02046FFF796
:1033000049FB08B1012070BD681C05D0FDF7B2FE75
:10331000801BA84207D835B120684069C043000629
:10332000ECD4002070BD002044F8300F20216173E0
:10333000A073216941F0200121612073E2E70000C0
:103340003EB5002411480094019402940E49846013
:10335000016004730475012505614FF46021446028
:10336000C161FDF757FC08B1FDF7B6FB0420CDE9BC
:103370000005694602940548FDF7CEFB002801D000
:10338000FDF7AAFB3EBD0000002401406C010020B7
:103390002DE9F04385B000242E4800940194029456
:1033A0000394816941F020018161816901F020016C
:1033B0000491816941F004018161816901F0040196
:1033C0000491816941F0080181618069DFF888809A
:1033D00000F008004FF48175049000222946404611
:1033E000FDF742FEDFF8749041F2150700223946DE
:1033F0004846FDF739FE0095022601250396CDE9E2
:10340000015469464046FDF737FD00970396CDE924
:10341000015469464846FDF72FFDE802CDE9000456
:10342000694640460294FDF727FD4FF4087000906E
:103430000B48CDE9010469464846FDF71DFD002211
:1034400011461720FEF7D8F91720FEF7C7F905B087
:10345000BDE8F0830010024000080140000C01406C
:10346000000021100D4810B50B4901600C49416066
:1034700000214FF480428160C0E903124161816103
:10348000C1610162FDF794FF002803D0BDE8104040
:10349000FDF722BB10BD0000005400409C0100203D
:1034A000A08601000D4810B50B4901600C49416030
:1034B00000214FF480428160C0E9031241618161C3
:1034C000C1610162FDF774FF002803D0BDE8104020
:1034D000FDF702BB10BD000000580040F0010020C5
:1034E000A08601000F4810B50D4901604FF48271AC
:1034F000416000218160C1604FF400720161C0E948
:103500000512C1610162416281620A21C162FEF756
:1035100097FC002803D0BDE81040FDF7DDBA10BDD0
:10352000003800404402002010B586B00024164840
:10353000009401940294039404944FF08041059404
:10354000016041F63F71C0E90114C910C0E90314DC
:103550008461FEF753FD08B1FDF7BEFA4FF48050C9
:10356000009069460848FEF7BFFD08B1FDF7B4FAC0
:10357000049404A904480594FEF70CFD002801D02A
:10358000FDF7AAFA06B010BD9C0200200C4810B549
:103590000A4901604FF4E1314160002181600C2251
:1035A000C160C0E904128161C161FEF78BFF002890
:1035B00003D0BDE81040FDF78FBA10BD00380140C0
:1035C000E40200200C4810B50A4901604FF4E131D3
:1035D0004160002181600C22C160C0E90412816158
:1035E000C161FEF76FFF002803D0BDE81040FDF772
:1035F00073BA10BD004400402403002007488178BE
:10360000412904D1C078432803D0492803D00020A1
:103610007047FDF753B8FDF77FB80000A400002005
:10362000FEE7FEE77047000070B51948FCF7CDFDD6
:10363000C2B20020044605460146154B05E05E5C1B
:10364000402E00D10846491CC9B29142F7D3014629
:1036500004E05E5C212E10D0491CC9B29142F8D31F
:10366000211A491C022912DD00210A4A0E4656542D
:10367000491CC9B26429FAD307E00C46F0E7195C8B
:1036800051556D1C401CEDB2C0B2A042F7D970BDBF
:1036900008010020A40000207047000008B522485F
:1036A000FDF715F90420009014234E221F491E48EF
:1036B000FDF717F9002205211B48FDF763F91CA14E
:1036C0001948FDF78FF9012200211748FDF75AF933
:1036D0001A4A1BA11E4800F0D5FA1D48FCF775FDDB
:1036E0001C4908701A491048FDF77CF90222002194
:1036F0000D48FDF747F9184A18A1154800F0C2FA1D
:1037000013490948FDF76EF9032200210648FDF729
:1037100039F9164A16A10E4800F0B4FABDE808407F
:103720000B490148FDF75EB95C0000209C010020B8
:10373000534F4C4152504F57455200007C000020DF
:10374000506469736368617267653A202573570036
:1037500048000020000000209000002050636861B5
:103760007267653A2025735700000000860000202C
:10377000496368617267653A202573410000000063
:103780007FB52F48FDF7A3F80420009014234E22A4
:103790002C492B48FDF7A5F8002206212848FDF703
:1037A000F1F829A12648FDF71DF90122002124483E
:1037B000FDF7E8F827480068FCF70EFD04462648A8
:1037C0000D460068FCF708FD0246DF200B4600901E
:1037D00022A12848CDE9024500F054FA2548FCF71B
:1037E000F4FC2549087023491548FDF7FBF802222F
:1037F00000211348FDF7C6F820480068FCF7ECFCF0
:1038000002460B461EA11B4800F03CFA19490C4821
:10381000FDF7E8F8032200210948FDF7B3F81D4839
:103820000068FCF7D9FC02460B461BA1114800F0CA
:1038300029FA04B00F49BDE870400148FDF7D2B83D
:103840005C0000209C0100205345415741544348EF
:1038500000000000100000200800002054656D707A
:103860003A252E32662563202050483A252E3166AF
:103870000000000034000020000000200C000020A8
:103880005475726269646974793A20252E30662015
:103890004E54550014000020416D706C69747564BD
:1038A000653A20252E3166206D000000FDF73EBFF1
:1038B00030B593B028216846FCF77CFC14210AA897
:1038C000FCF778FC002401250F9410942804CDE91E
:1038D00000501194129407946846FEF721F908B13C
:1038E00072B6FEE70F200A90CDE90B540D9400212B
:1038F0000AA80E94FEF728F808B172B6FEE7022077
:103900000F9011940FA8FDF7A9FF002801D072B6FF
:10391000FEE713B030BD70470148FEF751BC000010
:103920009C020020F0B50268164B174C174D4FF063
:103930008047984205D0B84203D0A04201D0A842A7
:1039400003D122F070064A683243984205D0B8424B
:1039500003D0A04201D0A84203D122F44074CA6827
:1039600022434C6922F08002224302608A68C262CC
:103970000A688262984201D10969016301214161AB
:10398000F0BD0000002C0140000400400008004091
:1039900010B5846842EA032224F47F440A43224398
:1039A000826010BD826822F070020A4342F0070173
:1039B0008160704710B5036A046A24F00104046250
:1039C000846924F0F00444EA021423F00A020A4352
:1039D0008461026210BD10B5036A23F01003036214
:1039E0008369046A23F4704343EA023224F0A0039B
:1039F00043EA01118261016210BD10B5406A0021E5
:103A0000C185C184FEF7AFFC10BD0168CA6822F40D
:103A10009072CA6001684A6922F001024A6120215D
:103A200080F83A10704710B590F83A10222901D06A
:103A3000022010BD82684FF480539A4201D101697F
:103A400021B1816A9A421BD04AB10AE00268816AB8
:103A50005268C2F308020A80816A891C08E0026980
:103A600072B10268526802F07F020A70816A491CD2
:103A70008162C18D491E0904090CC18503D016E07D
:103A800002685268F1E70168CA6822F02002CA6041
:103A90000168CA6822F48072CA6001684A6922F02B
:103AA00001024A61202180F83A10FEF7D3FD002080
:103AB00010BD000070B5044600680169E26821F499
:103AC0004051114301612169A068084361690843BD
:103AD0002168CA6841F20C639A430243CA602068B5
:103AE0004169A26921F44071114341611E49206876
:103AF000884202D1FDF7CEFF01E0FDF7BBFF00EBEE
:103B0000C00101EB0012606864218000B2FBF0F399
:103B1000B3FBF1F36FF018067343B2FBF0F5B2FBA1
:103B2000F0F605EB8305322303EB0515B5FBF1F544
:103B3000B6FBF1F605F0F00505EB0615B2FBF0F665
:103B4000B2FBF0F0B0FBF1F06FF01802504306EB5F
:103B5000800003EB0010B0FBF1F0216800F00F00D3
:103B60002844886070BD0000003801402DE9F04114
:103B7000984617460E460446069D1DE0681C1BD05D
:103B80002DB1FDF777FAA0EB0800A84214D9206800
:103B9000C16821F4D071C1602068416921F0010140
:103BA0004161202084F8390084F83A00002084F82C
:103BB00038000320BDE8F0812068006836EA000084
:103BC00004D00020B842D9D00020F3E70120F9E763
:103BD0000148FEF7C9BB0000E40200200148FEF7DF
:103BE000C3BB00002403002010B501220C2115489E
:103BF000FCF7C8FE144A15A1154800F043F8144913
:103C00001048FCF7EFFE022209210E48FCF7BAFE2D
:103C1000104A0EA10E4800F035F80D490948FCF78E
:103C2000E1FE032209210748FCF7ACFE0A4A0BA17A
:103C3000074800F027F8BDE8104005490148FCF7A7
:103C4000D1BE00005C0000207C00002025735700DE
:103C500048000020900000208600002025734100CD
:103C6000FEE700000FB4054B10B503A9044A029803
:103C700000F0FEF810BC5DF814FB0000A945000838
:103C8000300000200FB4084B10B504A902AA039815
:103C900000F0EEF8044602A9002000F080FC204667
:103CA00010BC5DF814FB00009F4500080907090ED1
:103CB000002804DB00F1E02080F80014704700F0D9
:103CC0000F0000F1E02080F8141D704702E008C8E2
:103CD000121F08C1002AFAD170477047002001E086
:103CE00001C1121F002AFBD1704700002DE9FF5FC0
:103CF00082B00021DDE90430020DDDF840B003435D
:103D000018D044F61050A2F2FF3242431514119815
:103D100001281FD0A5EB0B00401C5FEA000A4FF002
:103D200000064E4FDFF83891B046504615D5CAF11F
:103D3000000413E0119801244AA3012801D16FEA7D
:103D40000B010298119AC0E90031C0E9024206B0A5
:103D5000BDE8F09FCBF10000DFE704460021404AB8
:103D6000491842EB0450CDE9001012E0E00707D0FB
:103D700032463B4640464946FCF70DFB80468946A5
:103D800032463B4610461946FCF705FB06460F46F1
:103D90006410002CEAD1DDE90401DDE90023BAF169
:103DA000000F06DAFCF7F7FA42464B46FCF7F3FA47
:103DB00005E0FCF762FB42464B46FCF75EFB04461F
:103DC0000E460022284BFCF7DFFB03D84FF0FF30F4
:103DD000014607E00022254B20463146FCF734FA25
:103DE000FCF7BAFB102409E0002C0ADB0A220023AE
:103DF000FCF798F9039B30321A55641E50EA010211
:103E0000F2D1641C039AC4F111031444119A012ADB
:103E100003D0012208430DD10AE0084304D000205A
:103E20004FF0110B119072E7A3EB0B056D1E0DE027
:103E30005B4504DD4FF0000205F1010504E003DA03
:103E40004FF00002A5F10105002AECD0029811996B
:103E5000C0E90231C0E9004579E7000000001440E4
:103E60000000F03F300000000000F0430000E03FA1
:103E70002DE9FF4F95B09B468946064600250FE287
:103E8000252877D100242746F84A0121059400E02F
:103E9000044316F8013F203B01FA03F01042F7D12A
:103EA00030782A2811D06FF02F033078A0F130023B
:103EB000092A16D8059A44F0020402EB820203EBA9
:103EC00042021044761C0590EFE759F8042B059246
:103ED000002A03DA504244F40054059044F00204EE
:103EE000761C30782E2816D116F8010F44F0040401
:103EF0002A280DD06FF02F023078A0F13003092B63
:103F000009D807EB870302EB4303C718761CF3E7D6
:103F100059F8047B761C30786C280FD006DC4C28CE
:103F200017D068280DD06A2814D104E0742810D066
:103F30007A280FD10DE044F400140AE044F4801410
:103F400001E044F440147278824202D104F58014F6
:103F5000761C761C307866280BD013DC582877D076
:103F600009DC002875D04528F6D04628F4D047282B
:103F70001AD19DE118E0632835D0642879D06528EE
:103F800012D195E1702873D008DC6728F1D0692838
:103F90006FD06E280DD06F2806D1B5E073282CD0D5
:103FA000752875D0782874D05A46179990476D1C9B
:103FB00075E1C4F30250022809D003280DD0D9F8C6
:103FC000001004280DD00D6009F1040967E1D9F84B
:103FD0000010EA17C1E90052F6E7D9F800100D8089
:103FE000F2E70D70F0E719F8041B8DF800100020BF
:103FF0008DF80100EA46012003E059F804AB4FF0C8
:10400000FF3061074FF0000102D40DE008F101011B
:104010008846B9420FDA8045F8DB1AF80810002903
:10402000F4D108E008F1010188468142FADB1AF870
:1040300008100029F6D105985B46A0EB0807214639
:104040003846179A00F094FA284400EB080507E078
:104050004DE029E10DE01AF8010B5A4617999047F7
:10406000B8F10108F7D25B4621463846179A13E1AA
:1040700042E00A220092C4F302524FF0000A022AE0
:1040800008D059F804CB032A4FEAEC710AD00DE0AE
:1040900029E02AE009F1070121F00702F2E802C154
:1040A000914609E00FFA8CFC4FEAEC71042A03D127
:1040B0004FFA8CFC4FEAEC71002907DA0A4600211E
:1040C000DCF1000C61EB02012D2202E0220504D597
:1040D0002B228DF80420012203E0E20701D02022E8
:1040E000F7E7904659E00A2102E010220DE0102186
:1040F0004FF0000A00910BE010224FF0000A44F04C
:1041000004040827009203E008224FF0000A0092FE
:10411000C4F30252022A05D059F804CB0021032A25
:1041200008D009E009F1070121F00702F2E802C115
:10413000914605E01FFA8CFC042A01D10CF0FF0C1B
:104140004FF00008220728D5702806D0009B83F086
:10415000100353EA0A0305D00EE040228DF8042034
:10416000012208E05CEA010206D030228DF804202A
:104170008DF8050002229046009B83F0080353EA65
:104180000A030AD15CEA010201D1620705D5302297
:104190008DF804204FF001087F1E582804D034A069
:1041A00003900EA802900DE036A0F9E75346604652
:1041B000009AFBF7B7FF84460398825C0298401E82
:1041C000029002705CEA0100F0D1029806A9081A78
:1041D00000F1200A600702D524F4803400E00127B2
:1041E000574502DDA7EB0A0000E0002000EB0A01C2
:1041F000009005984144401A0590E00306D45B46C0
:104200002146179A059800F0B3F90544002706E007
:1042100001A85A46C05D179990476D1C7F1C474501
:10422000F6DBE0030CD55B462146179A059800F0B3
:104230009FF9054404E030205A46179990476D1CB9
:104240000099481E00900029F5DC08E002980299C8
:104250005A460078491C0291179990476D1CBAF193
:104260000001AAF1010AF1DC65E100000928010062
:1042700030313233343536373839616263646566DC
:10428000000000003031323334353637383941429E
:10429000434445460000000000F058F90544761CF0
:1042A000307800287FF4ECAD19B02846BDE8F08FD7
:1042B000620700D4062709F1070222F0070CFCE888
:1042C0000223E14603F000485FEA080C02D00FF237
:1042D000702C0DE05FEA045C02D50FF2682C07E059
:1042E0005FEAC47C02D00FF2602C01E0AFF2700CE8
:1042F0004FF0FF3823F00043CDF850C065280CD0B4
:1043000006DC452809D046281DD047283DD13DE090
:10431000662818D067287ED138E00021112F01DBF4
:10432000112000E0781CCDE9000106A90EA8FFF7D6
:10433000DDFCDDE90F010E9A03910021009207F1E7
:10434000010A04914DE04FF000400097CDE90110C3
:1043500006A90EA8FFF7CAFCDDE90F0203920E9B27
:1043600011990022DDF80CA00093049211B9791C78
:1043700000EB010AB7EB0A0004D4C0F1FF3007F1EB
:10438000010A0490AAEB0700019044E0012F00DA33
:1043900001270021112F01DD112000E03846CDE971
:1043A000000106A90EA8FFF7A1FCDDE90F010E9A96
:1043B0000391002104910092BA4621070CD403997D
:1043C000514500DA8A46BAF1010F05DD009AAAF1DB
:1043D0000101515C302908D0B84202DA10F1040F13
:1043E00006DA0121CDE9011015E0AAF10101E9E7A2
:1043F000002805DC049901440491AAEB000102E0C5
:10440000411C514500DD8A460499401A401C019028
:104410004FF000400290200704D40198504501DB82
:10442000CDF8048000208DF84F0002980DF14F0761
:10443000B0F1004F25D02B200E9002984FF00208CB
:1044400000280CDA404202902D200E9007E00A214D
:104450000298FBF7D4FE3031029007F8011DB8F145
:104460000001A8F10108F2DC02980028EFD1791EC2
:104470000E980870307800F0200040F0450007F8F2
:10448000020D12A8C01B00F107081498007800B1B3
:10449000012000EB0A01019801EBE071059841440D
:1044A000401A401E0590E00306D45B462146179A49
:1044B000059800F05DF805441498007818B15A4644
:1044C000179990476D1CE00324D55B462146179A47
:1044D000059800F04DF805441CE00498002807DB1F
:1044E000DDE90301884203DD0098405C179901E093
:1044F000179930205A469047049805F10105401C51
:1045000004900198401E019004D12E205A4617991C
:1045100090476D1CBAF10001AAF1010ADDDC05E04B
:1045200017F8010B5A46179990476D1CB8F1000116
:10453000A8F10108F4DC5B462146179A0598ABE622
:104540002D0000002B000000200000002DE9F041AC
:10455000044600251E461746880404D405E0394663
:104560002020B0476D1C641EF9D52846BDE8F081B7
:104570002DE9F041044600251E469046C80301D5AA
:10458000302700E02027880404D505E0414638465E
:10459000B0476D1C641EF9D52846BDE8F0810A6855
:1045A000531C0B601070704713B5642301226946D9
:1045B0000248FEF77DF800201CBD0000E402002048
:1045C00008B5FDF7BBF8FFF773F9FEF7E1FEFEF75C
:1045D000B7FEFEF747FFFEF765FFFEF783FFFEF726
:1045E000D5FFFEF7EFFFFEF79FFF214F0122114697
:1045F0003846FCF739FD1F4C01260025A670E570F2
:104600000420009014234E221B491C48FCF769F932
:10461000FFF7B6F80122611D1948FDF7F1FF1948AF
:10462000FDF736FD4FF00208E07870B1A078012860
:1046300002D0022805D007E084F80280FFF72EF8A8
:1046400002E0A670FFF79CF8E57060780028EBD0D8
:10465000FEF7EAFF10213846FCF7FEFCFEF7CEFF1E
:10466000A078022801D1FFF7BFFA6570DCE70000EF
:10467000000C0140180000209C0100205C0000207C
:10468000E40200209C020020000000000000000066
:1046900001020304060708090000000001020304E8
:1046A000C04600080000002034000000CC3C000898
:1046B000F44600083400002034070000DC3C000809
:1046C0000000000000000000CDCC1442CD0CC84317
:1046D0000000D040CDCC1C400000000000000000D5
:1046E0000100000010000000000000000024F400A1
:0446F00000000000C6
:04000005080000ED02
:00000001FF
