:020000040800F2
:10000000900C002001010008574B0008913B0008AC
:10001000554B00081D0F0008915D0008000000000E
:10002000000000000000000000000000E14F000898
:100030001512000800000000594B0008C9580008BC
:100040001B0100081B0100081B0100081B01000820
:100050001B0100081B0100081B0100081B01000810
:100060001B0100081B0100081B0100081B01000800
:100070001B0100081B0100081B0100081B010008F0
:100080001B0100081B0100081B0100081B010008E0
:100090001B0100081B0100081B0100084D1200088D
:1000A0001B0100081B0100081B0100081B010008C0
:1000B000515900081B0100081B010008A13B000862
:1000C000953B00081B0100081B0100081B010008EC
:1000D0001B010008095C0008155C00081B010008F2
:1000E000451200081B0100081B010008DFF80CD0B6
:1000F00000F0CCFB004800473D6D0008900C00204C
:100100000648804706480047FEE7FEE7FEE7FEE7B1
:10011000FEE7FEE7FEE7FEE7FEE7FEE74F590008D1
:10012000ED0000082DE9F05F0546002092469B4651
:1001300088460646814640241BE0284641464746FD
:10014000224600F020F853465A46C01A914110D377
:1001500011461846224600F07DFA2D1A67EB010879
:100160004F4622460120002100F074FA17EB0009E7
:100170004E41201EA4F10104DFDC484631462A46E8
:100180004346BDE8F09F202A04DB203A21FA02F022
:100190000021704721FA02F3D040C2F120029140C1
:1001A00008431946704740EA01039B0703D009E062
:1001B00008C9121F08C0042AFAD203E011F8013B53
:1001C00000F8013B521EF9D27047D2B201E000F8AC
:1001D000012B491EFBD270470022F6E710B51346EB
:1001E0000A4604461946FFF7F0FF204610BD30B519
:1001F00005462A460B4612F8010B13F8014B08B1CD
:10020000A042F8D01CB1002802D06D1CF1E72846AE
:1002100030BD421C10F8011B0029FBD1801A704729
:100220002DE9FE4F804681EA0300C00F0C46009086
:1002300021F0004123F00045B8EB0200A94105D2AE
:100240004046214690461C460B46024623F000409D
:10025000104347D0270DC7F30A00C3F30A51029099
:10026000401A019040286BDAC3F3130040F4801B5E
:100270000098924620B10023D2EB030A63EB0B0BEC
:1002800001985946C0F14002504600F0E3F9064695
:100290000D4650465946019A00F0EBF910EB080064
:1002A0006141002487EA115284EAE7731A4340D07F
:1002B000009A62B3019A012A4FEA075215DC001B2B
:1002C00061EB02014FF0004202EA0752CDE9004221
:1002D000001C41F5801132462B4600F071FA03B044
:1002E000BDE8F08F40462146F9E7001B61EB0201B3
:1002F000001C41F5801300185B412018A2F500177F
:1003000047EB030140EAD570B6196D4111E06D0865
:100310004FEA360645EAC0754FEA0752001B61EB0B
:100320000201001C41F5801149084FEA3000001914
:10033000514132462B4603B0BDE8F04F00F031BAD0
:100340000098012240000023D0EB020263EBE0732F
:10035000009821464FEAE074B8EB000061EB04011D
:10036000E9E783F000435BE781F0004158E72DE9BE
:10037000FE4F81EA030404F0004421F000410094A0
:100380004FF0000B23F0004350EA01045ED052EA24
:1003900003045BD0C3F30A54C1F30A552C44A4F2FE
:1003A000F3340194A0FB0254C1F3130141F4801112
:1003B000C3F3130343F4801301FB024400FB034E19
:1003C000840A970A44EA815447EA8357A4FB0768E2
:1003D00002958D0A05FB07854FEA932C04FB0C540C
:1003E0002705029D4FEA065847EA1637B5EB080580
:1003F0006EEB070C870E920E47EA811742EA8312D2
:10040000A7FB0201B6EB0B0164EB00042B0D43EAE2
:100410000C335E1844EB1C50DA465146E7FB0201F0
:10042000C5F313044FEA0B3343EA14534FEA043283
:10043000019C43EA0603A4F10C040294009CCDE95C
:1004400000B400F0BDF903B0BDE8F08F0020014614
:10045000F9E72DE9F04D81EA030404F0004B21F0A7
:10046000004514464FF0000A23F0004150EA05020F
:1004700020D054EA01021DD0C5F30A570246C5F345
:100480001303C1F31300C1F30A5640F4801543F47B
:100490008013A7EB0608101BD64608F2FD3873EB55
:1004A000050002D308F1010801E092185B41B8F1A0
:1004B000000F03DA00200146BDE8F08D00204FF464
:1004C0008011064684460EE0171B73EB050705D323
:1004D000121B63EB050306434CEA010C49084FEA83
:1004E000300092185B4150EA0107EDD152EA030057
:1004F00012D082EA040083EA0501084305D0101BEC
:10050000AB4106D20122002306E000224FF0004357
:1005100002E06FF0010253101AEB06004CEB085199
:1005200010EB0A0041EB0B01BDE8F04D00F039B9CA
:1005300070B521F0004303430CD0C1F30A550024E9
:10054000D5EB040564EB0403D617AD1AB34102DB07
:100550000020014670BD201841EB025170BD0EB560
:10056000C10F80EAE0700844CA07002140F233431B
:100570008DE80E000A460B4600F022F903B000BDDC
:100580000EB540F2334102910021CDE900110A4637
:100590000B4600F015F903B000BD00F0004230F04A
:1005A00000400AD0C10D01F56071C0F3160042EAA7
:1005B0000151C208400711437047002001467047AF
:1005C00030B5041E71F1000404DB4FF000444042DA
:1005D00064EB0101141E73F1000405DB1C464FF0AF
:1005E0000043524263EB0403994208BF904230BD7E
:1005F00001F0004330B421F0004150EA010206D07E
:100600000A0DA2F56072C1F31301002A02DC30BCAE
:1006100000207047440F44EAC104C100E01830BC18
:1006200000EBC25000F086B830B50B460146002002
:100630002022012409E021FA02F59D4205D303FAA4
:1006400002F5491B04FA02F52844151EA2F1010225
:10065000F1DC30BD202A04DB203A00FA02F1002050
:1006600070479140C2F1200320FA03F319439040F0
:100670007047202A06DBCB17203A41FA02F043EA02
:10068000E07306E041FA02F3D040C2F1200291404B
:1006900008431946704700000FB4002300B589B025
:1006A0000CA900910B996FF00042CB601E4B069392
:1006B0001E4B07930423CDE901321D4A08920246DE
:1006C0006B46002000F08EF909B05DF814FB70B5A0
:1006D00086B006464FF0FF300091CDE901010020C1
:1006E00015460C4604903246694604A8FFF7D4FF2D
:1006F00002460498211825B108B1084600E02046BA
:100700002860049800280DD0002A02DD0098884255
:1007100008D0081B0094CDE901043246694604A8BC
:10072000FFF7BAFF06B070BD1D0C00083B0C0008B7
:10073000B10800080029A8BF7047401C490008BF45
:1007400020F00100704710B4B0FA80FC00FA0CF001
:1007500050EA010404BF10BC704749B1CCF1200439
:1007600021FA04F411FA0CF118BF012121430843C6
:10077000A3EB0C01CB1D4FEA00614FEA102042BFF2
:10078000002010BC704700EBC35010440029A4BFE8
:1007900010BC7047401C490008BF20F0010010BC8D
:1007A000704710B5141E73F1000408DA401C41F1C3
:1007B000000192185B411A4301D120F0010010BDE5
:1007C0002DE9F04D92469B4611B1B1FA81F202E05B
:1007D000B0FA80F220329046FFF73CFF04460F4605
:1007E00040EA0A0041EA0B0153465A46084313D037
:1007F000114653EA010019D0C8F140025046FFF7F4
:10080000C2FC05460E46504659464246FFF722FFB7
:10081000084305D0012004E020463946BDE8F08DAC
:100820000020054346EAE0762C4337430A986305E7
:10083000E40AA0EB08000022FD0A44EA47540A300B
:1008400002D500200146E9E7010510196941DDE9FB
:10085000084500196941BDE8F04DA2E7C1F30A520D
:10086000C1F3130140F2FF3341F480119A4202DADE
:1008700000200146704740F233439A42A2F23342CD
:1008800002DC5242FFF77FBCFFF7E4BE064C074D87
:1008900006E0E06840F0010394E807009847103450
:1008A000AC42F6D3FFF726FCD0710008F0710008C7
:1008B000C0B24FF4F05100F0D1B900002DE9FF4F64
:1008C000087883B09946FF2805D0491C2D2804D00C
:1008D0000024002008E000200BE00124F9E700EBF1
:1008E000800003EB4000491C0B78FF2BF7D104B1CB
:1008F000404200230293147819461D462D2C01D046
:100900002B2C04D1521C2D2C13D000240294AA4667
:100910001478FF2C0FD00A25A3FB057801FB058175
:100920004FF0000C03FB0C11521CE3194AEB0101C0
:10093000EEE70124EAE7814453EA010002D019F509
:10094000C87F06DA03980021C0E9001107B0BDE8AE
:10095000F08F0025AE4E2F46DFF8B882184600F023
:1009600091F9CDE90001B9F1000002DAC9F1000402
:1009700000E004460023A74A1AEB030B42EB045A9B
:1009800012E0E00707D02A46334638464146FFF7D3
:10099000EEFC074688462A46334610461946FFF7BE
:1009A000E6FC05460E466410002CEAD1DDE90001A4
:1009B000B9F1000F5A46534606DAFFF74AFD3A46A8
:1009C0004346FFF746FD05E0FFF7D1FC3A464346B4
:1009D000FFF7CDFC029A0AB181F00041039AC2E907
:1009E0000001B3E72DE9FF4F1F468DB0D7E901465F
:1009F0004FF0FF382E2045464FF000090B90B969A3
:100A00006D1C0E988847396A824688470028F6D1BF
:100A1000BAF1FF3F0AD024F4D064002E11DDBAF100
:100A20002B0F08D0BAF12D0F0BD102E0404611B0C8
:100A30008DE744F48064B9696D1C0E98884782463E
:100A4000761E6946600501D52D2000E02B208DF82B
:100A5000000001F1010B0DF1200809E0B9696D1CDE
:100A60000E98884782460F9844F40074761E0560FD
:100A7000002E02DDBAF1300FF0D00B998A453ED13D
:100A800044F0800406E00F99681CA9F1010944F4C0
:100A900000740860B9696D1C761E0E9888478246FE
:100AA0003028F0D02BE00B998A4505D1200603D4DD
:100AB00044F08004761E18E0504605F0CDFC08B3E3
:100AC0000DF11301761E44F400748B4508D2AAF18F
:100AD00030000BF8010B200607D5A9F1010003E057
:100AE000200602D409F101008146A00502D50F9924
:100AF000681C0860B9696D1C0E9888478246002EF4
:100B0000D1DC53E0002E51DDBAF1650F02D0BAF10D
:100B1000450F4BD1A00549D5B9696D1C24F440742B
:100B2000761E0E9888478246002E0CDD2B2804D0B6
:100B3000BAF12D0F07D144F48074B9696D1C0E9879
:100B400088478246761EE00501D52D2100E02B2145
:100B500008F8011BCDF82C8021E00DF12901761E4B
:100B600044F4007488450CD2AAF1300010F0FF0064
:100B700088F8000002D10B99884509D908F10108CD
:100B800006E0E00501D5244801E042F20F708146FD
:100B9000B9696D1C0E98884782460F980560002E33
:100BA00004DD504605F058FC0028D6D1F9690E98AE
:100BB0008847FF208BF8000088F80000002006908E
:100BC00007904B466A4608A906A8FFF777FEA005DE
:100BD00002D46FF001002AE714F0240F0AD0E007D6
:100BE00014D1DDE906123868031D3B600068C0E9D6
:100BF00000120BE0DDE90601FFF7FAFC0146E00711
:100C000004D13868021D3A600068016028460EE78A
:100C1000000014400000F03FF1D8FFFF426842B1ED
:100C2000016811F8013B23B1521EC0E900121846B9
:100C300070470121C160881E704742685AB1C3687D
:100C4000016843B983688B4205D0491E521CC0E934
:100C50000012002070474FF0FF3070477F2801D905
:100C6000002208E0064A02EB5002C007127800D1C9
:100C7000120902F00F020120904008407047000066
:100C8000987000080EB540F2334202920022CDE97E
:100C900000221346FFF794FD03B000BD02484079DF
:100CA0003038C0B2704700002005002070B50446FF
:100CB00000688168C943C9071CD1816821F001011E
:100CC000816000F02BFF05460FE000BF00F026FF1B
:100CD000401B022809D9A06A40F01000A062E06A17
:100CE00040F00100E062012070BD20688068C043D0
:100CF000C007EBD0002070BDF8B500260446009672
:100D000000688168C943C90728D0816841F00101A2
:100D10008160134813490068B0FBF1F000E0401E09
:100D200000900028FBD100F0F9FE054611E000BF5D
:100D300000F0F4FE401B02280BD9A06A40F010001E
:100D4000A062E06A40F00100E06284F824600120C3
:100D5000F8BD20688068C043C007E9D10020F8BD15
:100D60008400002040420F002DE9F04799B0002098
:100D7000024669460A54401CC0B26428FAD3DFF820
:100D800090C107209CF80530372B07D0382B57D05F
:100D9000392B73D0002019B0BDE8F0875D4F0025D6
:100DA00007F10A0907F1140A002304E0401CCC549F
:100DB0005B1CC0B2DBB21CF800403B2CF6D1401CDF
:100DC000C0B225B1012D11D0022D33D121E0002474
:100DD0003A55641CE4B20A2CFAD3002403E00E5DF9
:100DE0003E55641CE4B29C42F9D323E000244E46F5
:100DF0003255641CE4B20A2CFAD3002406E000BF8A
:100E000011F8048006F80480641CE4B29C42F7D315
:100E100010E0002456463255641CE4B20A2CFAD382
:100E2000002405E011F8048006F80480641CE4B294
:100E30009C42F7D36D1CEDB2022DB5D90720AAE76D
:100E4000344E00251E3606F10A07002304E0401C3C
:100E5000CC545B1CC0B2DBB21CF800403B2CF6D17A
:100E6000401CC0B215B1012D24D112E0002432552E
:100E7000641CE4B20A2CFAD3002407E020E000BF8F
:100E800011F8048006F80480641CE4B29C42F7D395
:100E900010E000243A55641CE4B20A2CFAD3002472
:100EA00006E000BF11F8048007F80480641CE4B277
:100EB0009C42F7D36D1CEDB2012DC6D908206AE71C
:100EC000002304E0401CCC545B1CC0B2DBB21CF815
:100ED00000403B2CF6D10F4D002432352A55641CBE
:100EE000E4B20A2CFAD3002203E08C5CAC54521C0E
:100EF000D2B29A42F9D3401CC1B207481CF8012073
:100F00006144303A0270897830394170092042E7F3
:100F100020050020C400002045000020FEE700005E
:100F200010B5022209211D4800F09CF80122002181
:100F30001A4800F001F901221146184800F0FCF8A7
:100F400001220221154800F0F7F80122032113487D
:100F500000F0F2F803220921104800F083F810484D
:100F600005F01EFEFFF7FBFA0E4A0F4BFFF728FBBA
:100F70004FF0010206D80621084800F0DDF80122F2
:100F8000072105E00421054800F0D6F801220521DB
:100F9000BDE81040014800F0CFB80000B8000020C4
:100FA000E20000207B14AE47E17A843F10B50022B6
:100FB000012100F0C1F8BDE81040052000F04ABC56
:100FC00010B504460298216022716371A071282037
:100FD000A0720620E0710C2020721420607208209C
:100FE000E072322000F036FC00223321204600F06F
:100FF000A3F800223321204600F09EF8052000F0DF
:1010000029FC00223221204600F096F8052000F04D
:1010100021FC00222021204600F08EF8052000F05F
:1010200019FCE1790022204600F086F8217A00229E
:10103000204600F081F8617A0022204600F07CF81A
:10104000A17A0022204600F077F8002201212046F4
:1010500000F072F820460022BDE81040022100F0A6
:101060006BB8000030B4447900238C4201D8641E70
:10107000E1B28479944201D8641EE2B232B1012A0D
:1010800006D0022A07D0032A08D00AE00B4608E05F
:1010900001F1400304E001F1140301E001F1540304
:1010A000DBB2054CA170E270227030BC43F08001CD
:1010B000002200F041B8000001000020012200F0F1
:1010C0003BB800002DE9F04107460C460846FFF703
:1010D000A0F8174E707023E0002508E02178002961
:1010E00021D03846641CFFF7E9FF6D1CEDB2B078E3
:1010F000C0F11400A842F1DC2078002813D0307829
:1011000038B1012807D002280FD00328E4D10022EB
:1011100002E0012200E0022200210648FFF7A2FFC0
:1011200020780028D8D1BDE8F0810322F4E7000040
:1011300001000020B80000207CB506460807040E18
:10114000F07A01F0F00518B145F0080544F0080404
:10115000012A01D02AB108E045F0010544F001045C
:1011600003E025F0010524F0010445F004008DF8AA
:101170000400012000F06EFB8DF8055044F00400DF
:101180008DF80600012000F065FB4FF47A708DF8B1
:10119000074000903179042301AA306800F024FF51
:1011A0007CBD00000E48016821F08071016001687B
:1011B00041F0807101600B48016821F0010101607C
:1011C000016841F0010101600021416000BF00BFE2
:1011D00000BF406808B10020704701207047000040
:1011E000FCED00E0001000E031B5084D6C6801F046
:1011F000FFF90749B0FBF1F0009948430090686897
:101200000099001B8842FAD338BD0000001000E0AE
:1012100040420F007047000010B5084C0020E081EC
:1012200004F1180005F0D1FC054900202218127EB7
:101230000A54401CC0B2FF28F8D310BD00010020A2
:10124000840500204FF4006000F05ABB10B5202048
:1012500000F056FBBDE810404FF4007000F050BBAA
:1012600072B6FEE72DE9F04F494DDFF8288191B0C5
:101270004FF0FF3985F8019008F118009627029089
:10128000042088F8160040F6B83243A145A004F0C7
:101290000DFA012805D085F80190002011B0BDE8B5
:1012A000F08F3DA10298FEF7A2FF0146642202984A
:1012B000FEF779FF142103A8FEF78EFF142108A87A
:1012C000FEF78AFF00244FF02A0A3AA10298FEF79F
:1012D0008EFF064637A10298FEF789FF08B186F80F
:1012E00000A0641CE4B2022CEFD332A10298FEF7F6
:1012F0007EFF040001D084F800A02EA10298FEF722
:1013000076FF060001D086F800A02AA10298FEF719
:101310006EFFA6EB040A8346BAF1010200D55242E1
:10132000611C08A8FEF73FFFABEB0604621E00D568
:101330005242711C03A8FEF736FF5FEA0A0001D58E
:10134000CAF10000012811DD002C00DA6442012CF2
:101350000CDD08A805F024FCC5E9020103A805F08E
:101360001FFCC5E904010120687097E70020C5E96A
:101370000400C5E902007F1E85F80190FFB24FF41A
:101380007A7000F067FA002F7FF47AAF484685E75D
:1013900080020020000100202B43474E53494E4657
:1013A0003A00000041542B43474E53494E460D0A24
:1013B000000000002C000000094910B504208875C9
:1013C00040F6B83207A108A004F070F901464FF0CA
:1013D000FF30012902D108490870012010BD00002A
:1013E000000100204F4B000041542B43474E535007
:1013F00057523D300D0A000080020020094910B507
:101400000420887540F6B83207A108A004F04EF910
:10141000012802D04FF0FF3010BD084901200870AC
:1014200010BD0000000100204F4B000041542B4331
:10143000474E535057523D310D0A000080020020A4
:1014400001A004F0F7BE0000403B493B323B210ABB
:101450000D00000001A004F0EDBE0000403B493B40
:10146000313B210A0D00000001A004F0E3BE0000A2
:10147000403B493B333B210A0D000000F8B50024F6
:10148000009490F824202546012A12D0012280F8E9
:1014900024204A681F23072A0DD20668776B521E44
:1014A00002EB820293409F430B6893401F43776394
:1014B00019E00220F8BD06680D2A0AD2376BD21F48
:1014C00002EB820293409F430B6893401F433763B4
:1014D00009E0F76A0D3A02EB820293409F430B68E2
:1014E00093401F43F7620A68072306680A2A0AD353
:1014F000F7680A3A02EB420293409F438B6893409D
:101500001F43F76008E0376902EB420293409F43B4
:101510008B6893401F4337610A68102A01D0112A53
:1015200020D1124B02689A4217D193681B0219D43A
:10153000936843F4000393600968102912D10C49A1
:101540000C4A0968B1FBF2F101EB8101490000E0AE
:10155000491E00910029FBD104E0816A41F020017D
:101560008162012480F824502046F8BD0024014007
:101570008400002040420F000068C06C70470000EB
:101580002DE9F0414FF0000704003D467ED0A06AEF
:10159000002628B9E66284F82460204600F07EF830
:1015A0002046FFF783FBA16AC90600D420B1A06AD8
:1015B00040F01000A06269E0A16A21F4885141F076
:1015C0000201A1626268E169237B0A4347EA4301A1
:1015D0000A43A1684FF48077B94209D0012907D0A6
:1015E0005FF0000194F814C0BCF1010F02D00AE0D2
:1015F0003946F7E7F3B1A36A43F02003A362E36A35
:1016000043F00103E3622368D3F804C02CF4694C6F
:101610004CEA010CC3F804C021688B68DFF870C085
:1016200003EA0C0313438B60A168B9420BD0012974
:1016300009D00CE0DFF85CC0A3690CEB43330B432B
:1016400043F40061DFE7218A0D05A5F580152168C7
:10165000CB6A23F470032B43CB62216889680E4B5D
:101660001940914208D1E662A16A21F0020141F0DD
:101670000101A162BDE8F081A06A20F0020040F003
:101680001000A062E06A40F00100E0620120F1E792
:10169000FDF7E1FF00E0FFFFFE0E1FFF00B585B084
:1016A0000021009101910291039100680E49884246
:1016B00018D10E48816941F480618161816901F42A
:1016C00080610491816941F004018161806969460A
:1016D00000F0040004908020009003200190044852
:1016E00000F01AF905B000BD0028014000100240CA
:1016F0000008014070B5044690F8240001280DD080
:10170000012084F824002046FFF7F6FA02004FF08B
:10171000000005D084F82400104670BD022070BD82
:10172000A16A40F20123994341F48071A1621F4DE7
:1017300023681F49AB4218D10E6816F4702F14D0DD
:10174000A66A46F48016A6620E68760505D5A66AD6
:1017500026F4005646F48056A662A66AF6040AD518
:10176000E66A26F00606E66206E0A66A26F4801619
:10177000A6625E68E9E7E06284F824006FF0020088
:10178000186020688368C3F34243072B05D1A84241
:1017900008D1096811F4702F04D0816841F48011D8
:1017A0008160B9E7816841F4A001F9E700280140B0
:1017B0000424014010B590F821100024022903D020
:1017C0000421816301243DE001680A6822F00E02D1
:1017D0000A6001680A6822F001020A601A4A016878
:1017E000914201D1012121E0174A1432914201D1E5
:1017F00010211BE0144A2832914201D1891515E0CD
:10180000114A3C32914201D189140FE00E4A503204
:10181000914202D14FF4803108E00B4A6432914288
:1018200002D14FF4801101E04FF08071064A083A6E
:101830005160012180F82110002180F82010416BB7
:1018400001B18847204610BD0800024090F82100F1
:101850007047000070B5044600F060F90546601C52
:1018600002D004480078044400F058F9401BA0421C
:10187000FAD370BD7800002010B51C4CE17A012924
:1018800033D0B0F5007F13D0B0F5006F2DD11848DC
:10189000407D002829D1BFF34F8F16480168164AB2
:1018A00001F4E06111430160BFF34F8F00BFFDE71A
:1018B0001021124800F025F9A079032809D0022848
:1018C0000DD0012811D10320A071BDE8104003F014
:1018D0009FBB0220A071BDE8104003F0F7BB0120C0
:1018E000A071BDE8104003F063BC10BD50000020A3
:1018F000000100200CED00E00400FA05000C01409E
:10190000044910B50A68024202D00860FFF7B4FF2C
:1019100010BD0000140401402DE9F84FDFF8B89124
:10192000002409F1040A0AF1040B23460F270BF1E6
:10193000040EC9E00125A5402A40AA427DD1674E88
:10194000D1F804C0ACEB0608B44532D014DCBCF1CD
:10195000030F3AD009DCBCF1000F2AD0BCF1010F13
:101960001CD0BCF1020F31D11DE0BCF1110F17D01A
:10197000BCF1120F2AD119E0B8F5881F19D006DC86
:10198000B8F5803F15D0B8F5801F1FD111E0B8F52C
:10199000001F0ED0B8F5041F18D10AE0CB6815E07F
:1019A000CB681B1D12E0CB6808330FE0CB680C330B
:1019B0000CE08B682BB1012B4FF0080303D045617D
:1019C00004E0042302E0056100E00023FF2A01D8BF
:1019D000064601E000F104064FEA840501D9A5F1AD
:1019E0002005D6F8008007FA05FC28EA0C0803FA5F
:1019F00005F548EA0508C6F800804D68ED0062D597
:101A0000374DAE6946F00106AE61AD6924F00306BC
:101A100005F001050095334D06EB050CDCF8085088
:101A2000A607360F07FA06F825EA0805DFF8B8809A
:101A3000404503D14FF0000817E044E0DFF8AC80E8
:101A4000404502D14FF001080FE0DFF8A480404587
:101A500002D14FF0020808E0DFF89880404502D13B
:101A60004FF0030801E04FF0040808FA06F848EACE
:101A70000508CCF808804D68D9F80060ED034D46A4
:101A800001D5164300E096432E604D68DAF80060F9
:101A9000AD03554601D5164300E096432E604D68D0
:101AA000DBF80060ED025D4601D5164300E0964389
:101AB0002E604D68DEF80060AD02754601D5164314
:101AC00000E096432E60641C0D682A46E5407FF4D2
:101AD00031AFBDE8F88F0000000401400000111094
:101AE000001002400000014000080140000C0140CD
:101AF00000100140001401408068084000D001201F
:101B00007047C26821EA02030A4043EA02410161C8
:101B100070470AB1016170470904FBE7014880681A
:101B20007047000078000020704770472DE9F041B1
:101B3000016804464A694E6890F83E000025D74384
:101B4000FA050BD4F243D20508D46FF48072012554
:101B50004A6121680A6842F400420A60B90508D463
:101B6000F143C90505D422686FF4007145F0020500
:101B70005161790525D4F143C90522D4638D94F8C8
:101B80003D10226B202808D13BB9212910D02929EA
:101B90000ED0282901D1212A0AD022686FF4806151
:101BA000516145F00405102806D0402804D008E013
:101BB000204602F01FFC04E02068016841F4007137
:101BC0000160380508D4F043C00505D421686FF4DE
:101BD000006045F008054861002D07D0206C2843BF
:101BE00020642046BDE8F04102F03EB8BDE8F08137
:101BF0002DE9F041026800245168C76A90F83E5010
:101C000090F83D60102D1CD0402D1AD0036C002B95
:101C10007ED053694FF02805DB439F0779D4CF432B
:101C2000BF0576D4016C01B1946990F83D30002174
:101C30009D430B466ED0C91E516180F83C30BDE813
:101C4000F081946953694FF42A0CDB435FEAC37E49
:101C50004FF02A4604D06745F1D0B742EFD010E0EC
:101C6000CF43BF050DD4C16A614501D1012103E015
:101C7000C16AB14201D10821C162BDE8F04102F060
:101C800023BB1E0716D4CE43B60513D4416CC9B28C
:101C90001161416B11B9826B002AD0D0896A19B9E0
:101CA000816B896A0029CAD00068416841F40061EB
:101CB0004160C4E79E0706D4CE43B60503D4BDE811
:101CC000F04102F055BAE443526864074FEA025209
:101CD0001BD4002AB3DB1A0608D4CA43520505D424
:101CE0005A0705D5BDE8F04102F0E6B95A07A6D477
:101CF000C9438905A3D4102D03D0BDE8F04102F0FB
:101D000029BBBDE8F04102F09DB9002A97DB02E053
:101D100015E029E015E05A0608D4CA43520505D457
:101D20005A0705D5BDE8F04102F0CAB85A0786D473
:101D3000C943890583D4BDE8F04102F058B89469DD
:101D400067E7556825F480655560E243540700D580
:101D50000121120601D5828900E0028B80F83C3017
:101D600092B2FFF7E2FE6AE7DC0606D4CC43A40594
:101D700003D4BDE8F04102F07FBB212E27D0292EED
:101D800025D05C0655D4CC43640552D45B0752D5AC
:101D900090F83D10438D002B8BD01269436A1A7066
:101DA000426A521C4262428D521E4285428D002A76
:101DB000D9D12A29D7D101684A6822F480624A60C1
:101DC0002221016380F83D5000F002FA37E71C063B
:101DD00023D4CC43640520D45B0720D590F83D1074
:101DE000438D002BBFD0436A1B781361426A521C9B
:101DF0004262428D521E4285428D002AB3D129296A
:101E0000B1D101684A6822F480624A6021210163ED
:101E100080F83D5000F0DDF911E75B07A3D4C9431A
:101E20008905A0D4418D00299DD0416A09781161AE
:101E30000AE05B0797D4C943890594D4418D0029F2
:101E400091D01169426A1170416A491C4162418D09
:101E5000491E4185F3E6704770B5040025D094F81B
:101E60003D00002520B984F83C50204600F054F98C
:101E7000242084F83D002068016821F00101016000
:101E80002068016841F4004101602068016821F484
:101E90000041016000F0B2FB4D4A6168914201D8F7
:101EA0004C4900E04C49884201D2012070BD4B49A9
:101EB0002368B0FBF1F15E6826F03F060E435E60DA
:101EC0006368934206D94FF4967359434FF47A737B
:101ED000B1FBF3F12368491C1E6A26F03F0631432B
:101EE00019626168914210D84900401EB0FBF1F2BE
:101EF000521CC2F30B02042A01D2042022E0B0FBE0
:101F0000F1F0401CC0F30B001CE0A268F2B301EB3F
:101F1000C10303EB0116431EB3FBF6F35B1C43F452
:101F200080431B0549D092B301EBC10202EB0111C2
:101F3000401EB0FBF1F0401CC0F30B0040F48040A9
:101F400040F400402168CA694CF6FF739A4310437D
:101F5000C861D4E9071001432068026822F0C0027A
:101F600011430160D4E9030101432068826848F20B
:101F7000FF339A4311438160D4E905010843216886
:101F8000CA6822F0FF021043C86001E00EE016E0CC
:101F90002068016841F0010101602564202084F877
:101FA0003D00256384F83E50002070BD01EB4106E2
:101FB000431EB3FBF6F35B1CB3E70120C2E701EB62
:101FC0004101401EB0FBF1F0401CC0F30B00B7E72D
:101FD000A086010080841E0000093D0040420F00E1
:101FE00070477047704700002DE9F84F1F46904634
:101FF0008A460446DDF82890FFF790FD054694F8E0
:102000003D0020287FD11923012240492046009518
:1020100002F006FB002876D194F83C00012872D02B
:10202000012084F83C0020680168C90703D10168D9
:1020300041F0010101602068016821F40061016044
:10204000212084F83D00102084F83E0000262664FC
:10205000C4F824806785608D20852D48E0622B467A
:102060004A465146204601F09FFF90B920684169D9
:102070008069009036E02A464946204602F04FFB30
:1020800050B1206C042804D12068016841F400712B
:1020900001600120BDE8F88F606A2168007808615E
:1020A000606A401C6062618D491E6185218D491EF8
:1020B00089B2218522685369DB435B070BD451B198
:1020C00000781061606A401C6062608D401E60850F
:1020D000208D401E20852A464946204602F07AFA85
:1020E0000028CED1208D0028C5D154F83D0B0168C1
:1020F00041F400710160202004F81E09E67766773C
:102100000020C7E7FFE70220C4E70000020010003C
:102110000000FFFF7047704730B585B00021009187
:10212000019102910391264D0368264C122103224E
:102130002548AB4228D1A36943F00803A361A369F2
:10214000039203F008030493C023CDE900316946EC
:10215000FFF7E2FBE06940F40010E061E069002273
:1021600000F40010049005211F2000F099F81F20B2
:1021700000F088F800220621202000F091F82020AD
:1021800000F080F805B030BD104DAB42FAD1A36924
:1021900043F00803A361A369039203F008030493C7
:1021A0004FF44063CDE900316946FFF7B5FBE069C4
:1021B00040F48000E061E06900F480000490E1E711
:1021C0000054004000100240000C01400058004044
:1021D00070477047024881680278114481607047F7
:1021E00078000020074810B5016841F01001016037
:1021F000032000F075F8002000F006F800F024F845
:10220000002010BD0020024070B50D4D04464FF473
:102210007A712878B1FBF0F00A490968B1FBF0F057
:1022200001F089F848B9102C07D200222146501E2F
:1022300000F036F800206C6070BD012070BD000019
:1022400078000020840000200C4808B5816941F026
:1022500001018161816901F001010091C16941F0D1
:102260008051C161C06900F080500090044841680D
:1022700021F0E06141F00071416008BD00100240B2
:1022800000000140002809DB00F01F0201219140FD
:102290004009800000F1E020C0F800117047000004
:1022A000F0B40E4B1B680C46C3F30223C3F10705C1
:1022B000042D00D90425191D072901D2002300E0AF
:1022C000DB1E012606FA05F1491E214099409E4079
:1022D000761E16403143F0BC03F0D0BF0CED00E099
:1022E000064900F0070208684FF6FF03184040EA6D
:1022F0000220034A10430860704700000CED00E024
:102300000000FA05014901200862704700000E42F2
:1023100010B529A401461DCC86B08DE81D002AA069
:102320002A4C006804900020012923D002293AD0C9
:1023300010291DD161682268D20119D5C1F38342E9
:10234000C9031DF8020009D5616804AAC1F3404120
:10235000515C1F4AB2FBF1F1484301E01D4948437B
:102360006168490204D440005FF00301B0FBF1F062
:1023700006B010BD226AC2F30121012903D19207E0
:1023800001D5C803F4E7022905D1626A920702D594
:1023900049F64040ECE70329EAD121688903E7D5F3
:1023A0004FF22440E4E700F039F96168C1F381316C
:1023B000491C4900DAE70000020304050607080982
:1023C0000A0B0C0D0E0F101001020000001002404D
:1023D00000127A0000093D002DE9F8430546007817
:1023E000354CC00754D0E0690026C00008D4E0692D
:1023F00040F08050E061E069012600F080500090DC
:102400002E480168C90512D40168804641F48071E4
:102410000160FFF783FB074605E000BFFFF77EFB87
:10242000C01B642823D8D8F80000C005F6D5206A60
:1024300010F4407021D0A98801F4407181421CD071
:10244000206A1F49012220F440700A6000220A60BD
:102450002062C00711D0FFF761FB074641F28838C0
:1024600008E000BFFFF75AFBC11B414502D903201A
:10247000BDE8F883206A8007F4D5206A696820F4F3
:102480004070084320621EB1E06920F08050E06196
:102490002878800705D56068A96820F44040084383
:1024A00060602878C00605D56068E96820F480007F
:1024B000084360600020DBE700100240007000402D
:1024C000400442422DE9F0470F46050061D0434EDB
:1024D000306800F00700B84209D2306820F00700E9
:1024E00038433060306800F00700B84251D12868A6
:1024F0003B4C810712D5400703D5606840F4E0608B
:1025000060602878000703D5606840F46050606020
:102510006068A96820F0F000084360602878C00770
:1025200028D06868012810D02168022810D08907B7
:1025300000292EDA616821F0030101436160FFF791
:10254000EDFA804641F288390DE021688903EFE712
:102550008901EDE7FFF7E2FAA0EB0801494502D94E
:102560000320BDE8F0876068696800F00C00B0EBFC
:10257000810FEFD1306800F00700B8420BD9306806
:1025800020F0070038433060306800F00700B842A0
:1025900001D00120E5E72878400705D56068E968A3
:1025A00020F4E060084360602878000706D5606882
:1025B000296920F4605040EAC100606000F03EF8F4
:1025C0006168084AC1F30311515CC84006490860BC
:1025D00006480068FFF718FE0020C2E7002002400E
:1025E0000010024080700008840000207C00002061
:1025F0000148006870470000840000200448054935
:1026000000684968044AC1F30221515CC840704720
:102610008400002000100240907000080448054922
:1026200000684968044AC1F3C221515CC840704740
:1026300084000020001002409070000812A185B0B4
:102640000FC98DE80F0014A0144A00680490516867
:10265000134801F00C03042B10D0082B0ED1C1F34A
:102660008343C9031DF803000AD5516804AAC1F3C6
:102670004041515C0A4A5043B0FBF1F005B070474D
:1026800008494843FAE70000020304050607080961
:102690000A0B0C0D0E0F101001020000001002407A
:1026A00000127A0000093D002DE9F84F040070D0B7
:1026B0002078C04DC00749D06868C0F38100012868
:1026C00007D06868C0F38100022809D16868C00398
:1026D00006D52868800339D560680028E7D035E042
:1026E0006068B0F5803F0BD010B1B0F5A02F11D0CD
:1026F000286820F480302860286820F4802002E0D8
:10270000286840F480302860606890B1FFF706FACE
:1027100006460AE0286840F480202860F0E700BF01
:10272000FFF7FCF9801B642873D828688003F7D56D
:102730000CE0FFF7F3F9064605E000BFFFF7EEF9FE
:10274000801B6428F0D828688003F7D420789A4E3C
:1027500080074FF001094FF0000839D5686810F084
:102760000C0F07D06868C0F38100022809D168689F
:10277000C00306D42868800714D52069012808D131
:1027800010E02069B0B1C6F80090FFF7C7F907461E
:1027900005E00AE1FFF7C2F9C01B0228C4D8286887
:1027A0008007F7D52868616920F0F80040EAC10089
:1027B00028600DE0C6F80080FFF7B0F9074604E096
:1027C000FFF7ACF9C01B022823D828688007F7D48C
:1027D000207800072CD57948A169D9B1C0F80090BC
:1027E000FFF79CF9074604E0FFF798F9C01B0228A1
:1027F0000FD8686A8007F7D571484FF4FA5100681E
:10280000B0FBF1F0009000BF0098411E0091FAD299
:102810000EE080E0C0F80080FFF780F9074604E092
:10282000FFF77CF9C01B022875D8686A8007F7D4C7
:102830002078400760D5E8690027C00008D4E8691F
:1028400040F08050E861E869012700F08050009076
:102850005C480168C90513D40168834641F480715E
:102860000160FFF75BF9824606E000BFFFF756F90B
:10287000A0EB0A0064284ED8DBF80000C005F5D5AF
:10288000E06801280AD008B1052813D0286A20F092
:1028900001002862286A20F0040002E0286A40F063
:1028A00001002862E06841F2883B98B1FFF736F9F1
:1028B00082460BE0286A40F004002862EEE700BF81
:1028C000FFF72CF9A0EB0A0159455AD8286A80076E
:1028D000F6D50CE0FFF722F9824605E0FFF71EF976
:1028E000A0EB0A0159454CD8286A8007F6D41FB1DD
:1028F000E86920F08050E861E06988B36968C1F355
:102900008101022944D00228C6F8608004D0FFF774
:1029100005F9044638E034E0FFF700F9074604E023
:10292000FFF7FCF8C01B02282BD828688001F7D4D9
:10293000206AB0F5803F05D16868A16820F40030B6
:1029400008436860D4E908010843696821F47411F8
:1029500008436860C6F86090FFF7E0F8044606E0B8
:1029600025E000BFFFF7DAF8001B022809D8286825
:102970008001F7D51BE000BFFFF7D0F8001B02284D
:1029800002D90320BDE8F88F28688001F4D40EE056
:102990000128F7D06868226A00F48031914204D19E
:1029A000616A00F47010884201D00120EAE700203B
:1029B000E8E700000010024000004242800442426A
:1029C0008400002000700040F8B505004FF00000C2
:1029D00016460C46009006D02CB1002269462846C7
:1029E00000F019F808B10120F8BD287B2070E87BC1
:1029F000E070697B6170A97BA17056B102F0EFF8BD
:102A0000E070607802F0EBF86070A07802F0E7F810
:102A1000A0700020F8BD2DE9F04791460C465FEA12
:102A200000084AD084B3D8F800004068400744D476
:102A3000404602F073F94FF461620546B0FBF2F1D3
:102A4000B0FBF2F302FB13503C23B0FBF3F0B5FBF9
:102A5000F2F6607002FB1650B0FBF3F203FB1200BB
:102A6000A070182931D31820B1FBF0F7B1FBF0F2B8
:102A700000FB12102070404602F049F9411C04D0BE
:102A8000A84202D9461B02E017E04FF0FF36A7EB41
:102A9000071000EB4000C0EB001005EBC015294605
:102AA000404602F08AF940B9701C01D0711900E06B
:102AB0003146404602F06DF910B10120BDE8F087C3
:102AC0003946404602F096F800E02170B9F1000F57
:102AD0000BD0207802F083F82070607802F07FF845
:102AE0006070A07802F07BF8A0700020E6E700009C
:102AF00070B5040003D0607C002610B105E0012011
:102B000070BD2674204600F043F802206074204611
:102B100000F010F9042578BB204602F0C2F858BB3B
:102B20002068416821F007014160A06820B1174882
:102B3000016821F0010101601448001F0168A268CA
:102B400021F46071114301606068411C04D10120CF
:102B5000FFF7DEFB80B1401E21688A6822F00F0279
:102B600042EA10428A602168CA6860F30F02CA60B4
:102B7000204602F0B1F808B16574C0E7E6730120A1
:102B80006073A0736074002070BD0000306C004062
:102B900008B50068084988420DD1FFF7B3FB074824
:102BA000C16941F00061C161C069054900F0006080
:102BB00000900120086008BD00280040001002407D
:102BC0003C0442422DE9F0410D4604003BD0C5B320
:102BD000207C01283AD04FF0010884F810800220B0
:102BE0006074E87872B301F0F1FFE073687801F087
:102BF000EDFF6073A87801F0E9FFA073C2B2617BBA
:102C0000E07B02F09BF820732870204602F086F8E3
:102C10004FF46161B0FBF1F1002518292DD918227C
:102C2000B1FBF2F1A1EB011101EB4101C1EB01118B
:102C300000EBC1163146204602F0BFF80427C8B9A0
:102C40000BE000E004E00120BDE8F0810220FBE79A
:102C5000E07368786073A878CFE7204602F057F8F1
:102C6000411C0AD0B04208D206490144204602F075
:102C700090F810B167742574E5E784F81180257425
:102C80000020E1E7805101002DE9F0410D460400EC
:102C900024D01DB3207C012823D04FF0010884F8F4
:102CA0001080022060742878EAB101F08FFF4FF4A1
:102CB000616100FB01F6687801F088FFC0EB00104D
:102CC00006EB8006A87801F081FF351829462046DA
:102CD00002F073F80026042710BB0FE00120BDE8C6
:102CE000F0810220FBE74FF4616148436978C1EB52
:102CF000011100EB8100A9784518E7E720684168D9
:102D000021F005014160204602F001F8411C0AD083
:102D1000A84208D206490144204602F03AF810B110
:102D200067742674DAE784F8118026740020D6E7E9
:102D30008051010070B504000AD02068416821F07C
:102D400008014160FEF7EAFE05464FF47A7608E096
:102D5000012070BDFEF7E2FE401BB04201D9032006
:102D600070BD206840680007F4D5002070BD70B5C4
:102D7000040009D0606A002540B125616561A56243
:102D800094F8510040B10CE0012070BD6068B0F5CE
:102D9000827FF4D0E561F2E784F85050204600F0DD
:102DA0003FF8022084F851002068016821F04001BA
:102DB0000160A088218900F4827001F40441084375
:102DC000A18901F400610843217C01F0020108435C
:102DD000217D01F001010843218B01F400710843BA
:102DE000217F01F03801084394F8201001F08001A0
:102DF0000843218D01F40051084321680860A0694F
:102E0000042101EA1040216848602068C16921F46A
:102E10000061C1616565012084F85100002070BD2A
:102E200030B585B0002400940194029403940068A6
:102E30001549884225D11548C16941F48041C161D5
:102E4000C16901F480410491816941F00801816107
:102E500080690F4D00F0080004904FF4204000906E
:102E6000022001900320039069462846FEF754FD96
:102E70004FF48040CDE90004694628460294FEF7ED
:102E80004BFD05B030BD000000380040001002408E
:102E9000000C01402DE9F84F044640680025984693
:102EA00016460F464FF0040BB0F5827F01D1A068A3
:102EB00088B194F85000012818D0012084F85000FF
:102EC000FEF72CFE814694F851004FF0000A0128CD
:102ED0000ED0022582E084F851B013460A462046FF
:102EE000CDF8008000F036F9BDE8F88F0220FBE74E
:102EF000002F72D0002E70D084F851B0C4F854A0C6
:102F0000A763A687E687C4F830A0A4F834A0A4F885
:102F100036A0C4F840A0C4F844A0A068B0F5004FA3
:102F200009D12068016821F0400101602068016832
:102F300021F48041016020680168490603D40168DA
:102F400041F040010160E068D8B139E02068816853
:102F5000C90709D0007BA16B0870A06B401CA0635F
:102F6000E08F401EE0870CE0FEF7D8FDA0EB0901E2
:102F7000414503D3B8F1FF3F03D036E0B8F1000F6D
:102F800033D0E08F0028E1D11DE020688168C907B7
:102F900009D0C068A16B0880A06B801CA063E08F83
:102FA000401EE0870CE0FEF7B9FDA0EB09014145AA
:102FB00003D3B8F1FF3F03D017E0B8F1000F14D0EE
:102FC000E08F0028E1D14A464146204601F06EFFDD
:102FD00008B120206065606D00B10125012084F8F2
:102FE000510084F850A028467EE70325F6E72DE936
:102FF000F84F044690F8500000271D4616468946B3
:1030000001280DD04FF0010B84F850B0FEF786FD7B
:10301000804694F85100BA46012804D0022793E074
:103020000220BDE8F88FB9F1000F73D0002E71D0E7
:10303000032084F85100C4F854A0C4F83090A68648
:10304000E686C4F838A0A4F83CA0A4F83EA0C4F8D2
:1030500044A0C4F840A0A068B0F5004F09D1206892
:10306000016821F0400101602068016841F480415D
:10307000016020680168490603D4016841F04001FD
:103080000160E068B0F5006F606803D030B3012ED6
:1030900024D041E008B1012E1CD1206B21680088AA
:1030A000C86006E020688168890709D5216B098816
:1030B000C160206B801C2063E08E401EE08609E02A
:1030C000FEF72CFDA0EB0800A84202D3681C01D03B
:1030D00031E07DB3E08E0028E4D120E0206B216850
:1030E0000078087306E020688168890709D5216B9C
:1030F00009780173206B401C2063E08E401EE0863F
:103100000AE0FEF70BFDA0EB0800A84203D3681C01
:1031100002D010E017E06DB1E08E0028E3D1424606
:103120002946204601F0F0FE08B120206065A06825
:1031300018B106E0FFE7032706E02068C168806851
:103140000090606D00B1012784F851B084F850A060
:10315000384666E72DE9F84F044690F850000027FE
:103160000A9E1D4692468B464FF0010901280ED05B
:10317000012084F85000FEF7D1FC804694F85100FD
:10318000616801280CD0B1F5827F07D102E00220EE
:10319000BDE8F88FA16809B9042801D00227C2E070
:1031A000BBF1000F27D0BAF1000F24D01DB394F863
:1031B0005100042802D0052084F8510000206065E9
:1031C000C4F838A0E587A587C4F830B0E586A586A1
:1031D0002064606420680168490603D4016841F0F6
:1031E00040010160E068B0F5006F606805D0E8B3A9
:1031F000012D46D07FE0012795E008B1012D39D19E
:10320000206B21680088C860206B801C2063E08EE2
:10321000401EE0862EE02068816889070FD5E18E88
:1032200069B1B9F1010F0AD1216B0988C160206B26
:10323000801C2063E08E401EE0864FF0000920686D
:103240008168C9070CD0E18F51B1C068A16B0880BB
:10325000A06B801CA063E08F401EE0874FF0010947
:10326000FEF75CFCA0EB0800B04200E009E001D3EF
:10327000701C50D1E08E0028CDD1E08F0028CAD13B
:103280003FE0206B216800780873206B401C2063AE
:10329000E08E401EE0862EE02068816889070FD509
:1032A000E18E69B1B9F1010F0AD1216B097801737F
:1032B000206B401C2063E08E401EE0864FF000092A
:1032C00020688168C9070CD0E18F51B1C068A16B3B
:1032D0000870A06B401CA063E08F401EE0874FF099
:1032E0000109FEF71BFCA0EB0800B04202D3701CE2
:1032F00001D010E07EB1E08E0028CDD1E08F002813
:10330000CAD142463146204601F0FEFD28B10127D0
:103310002020606507E0032705E0A06818B9206851
:10332000C16880680090012084F85100002084F872
:10333000500038462CE710B5401EB0F1807F01D315
:10334000012010BD4FF0E02460610F21601702F0F2
:1033500095FF0020A06107202061002010BD70476C
:103360007047000070B590F83C20012A26D0012457
:1033700080F83C40022280F83D2003685A689D682E
:1033800022F070060A6832435A600D4B02689A4276
:1033900008D0B2F1804F05D00A4B9A4202D00A4BB6
:1033A0009A4204D1496825F080031943916080F85E
:1033B0003D40002180F83C10084670BD022070BDE1
:1033C000002C0140000400400008004010B504003B
:1033D00003D094F83D0010B107E0012010BD00209B
:1033E00084F83C00204600F01FF8022084F83D00DD
:1033F000211D206802F0B2FA012084F8460084F80A
:103400003E0084F83F0084F8400084F8410084F8CE
:10341000420084F8430084F8440084F8450084F8AE
:103420003D00002010BD000008B50068B0F1804FDD
:1034300012D10A48C16941F00101C161C06900228D
:1034400000F00100009004211C20FEF729FFBDE8D8
:1034500008401C20FEF716BF08BD00000010024007
:1034600090F83D10012901D001207047022180F819
:103470003D100168CA6842F00102CA6000680B4949
:10348000884208D0B0F1804F05D00949884202D067
:103490000849884204D1816801F00701062903D058
:1034A000016841F00101016000207047002C0140DB
:1034B000000400400008004070B5044690F83C004D
:1034C000012817D0012584F83C50022084F83D00E3
:1034D0002068826822F0770222F47F4282600868C6
:1034E000502830D00DDC20284DD005DC98B31028B2
:1034F0003BD148E0022070BD302844D0402834D170
:1035000039E0602828D0702806D0B0F5805F2CD034
:10351000B0F5005F29D10AE0CB68D1E9012120682C
:1035200002F052FA2068816841F0770109E0CB6827
:10353000D1E90121206802F047FA2068816841F44E
:103540008041816011E0CA684968206802F04EFA43
:103550005021206807E016E0CA684968206802F038
:1035600056FA6021206802F039FA84F83D500020B4
:1035700084F83C0070BDCA684968206802F036FAD9
:1035800040212068EFE7226801461046EBE77047CC
:1035900070B50446006801694FF00005C94389070A
:1035A00015D4C168C943890711D4E91E01610120FE
:1035B0002077206880698007204602D0FFF7E7FF68
:1035C00004E000F098F8204600F096F8257720688F
:1035D0000169C943490717D4C168C943490713D4CE
:1035E0006FF004010161022020772068806910F4E7
:1035F000407F204602D0FFF7CAFF04E000F07BF8CE
:10360000204600F079F8257720680169C943090749
:1036100016D4C168C943090712D46FF008010161CB
:10362000042020772068C0698007204602D0FFF779
:10363000AEFF04E000F05FF8204600F05DF825776B
:1036400020680169C943C90617D4C168C943C906BE
:1036500013D46FF010010161082020772068C06941
:1036600010F4407F204602D0FFF791FF04E000F005
:1036700042F8204600F040F8257720680169C943E8
:10368000C90708D1C168C943C90704D1891E0161AE
:10369000204600F033F820680169C943090609D4BF
:1036A000C168C943090605D46FF080010161204655
:1036B000FFF755FE20680169C943490609D4C1686E
:1036C000C943490605D46FF040010161204600F06E
:1036D00051F820680169C94389060BD4C168C94300
:1036E000890607D46FF0200101612046BDE87040D3
:1036F000FFF736BE70BD70477047000010B51C4C18
:10370000E17A012933D00068B0F1804F2FD1607881
:10371000401CC0B26070012806D0022807D00328E0
:1037200008D004280BD108E0FDF794FE07E0FDF770
:1037300087FE04E0FDF798FE01E0002060706078ED
:10374000C00703D101F07EFB01F04CFBA0790328F8
:1037500001D102F065FAA079022801D102F0DCFA69
:10376000A079012803D1BDE8104002F081BA10BD54
:10377000500000207047704770B50268044610681A
:10378000D168536910F00F0F52D003F0010501F416
:1037900090762E435FD0C20705D0CA0503D5E26BF1
:1037A00042F00102E263420705D5DA0703D0E26B7B
:1037B00042F00202E263820705D5DA0703D0E26B2A
:1037C00042F00402E263020707D501F020022A4317
:1037D00003D0E26B42F00802E263E26B002A33D0CE
:1037E000800604D5880602D5204602F038F9206804
:1037F0004069E16BC0F38010090700D428B320466C
:1038000002F01FF92068416949061AD5416921F083
:1038100040014161606BA0B12D494163606BFDF7D0
:10382000C9FF002810D0606B416BBDE870400847AD
:10383000830610D58B060ED52046BDE8704002F0F9
:103840000EB92046FFF797FF70BD2046FFF793FFA4
:103850000020E06370BD03062BD50B0629D594F834
:1038600039002128F6D1A068B0F5805F01D1206928
:10387000B0B1206A411C2162216800784860E08C68
:10388000401E0004000CE084E4D12068C16821F0EF
:103890008001C1602068C16841F04001C16070BD15
:1038A000206A0088C0F308005060206A801C2062F3
:1038B000E5E74006F3D54806F1D5D168204621F06A
:1038C0004001D160202184F8391000F060F970BD0A
:1038D000335A000870B5040004D094F8390000256C
:1038E00010B106E0012070BD84F83850204600F089
:1038F00023F8242084F839002068C16821F400519D
:10390000C160204602F0F2F82068016921F490417C
:1039100001612068416921F02A0141612068C16884
:1039200041F40051C160E563202084F8390084F837
:103930003A00002070BD000070B586B000240094ED
:103940000194029403942E4E03682E490220032210
:103950002D4DB34226D18B6943F480438B618B6933
:1039600003F4804304938B6943F004038B618969FA
:10397000039201F0040104910102CDE900106946AF
:103980002846FDF7C9FF2815CDE9000469462846F9
:103990000294FDF7C1FF002203212520FEF780FCE1
:1039A000252028E0194EB34227D1CB6943F40033D8
:1039B000CB61CB6903F4003304938B6943F00403B8
:1039C0008B618969039201F0040104910421CDE91E
:1039D000001069462846FDF79FFF0820CDE9000446
:1039E000694628460294FDF797FF0022022126200F
:1039F000FEF756FC2620FEF745FC06B070BD000021
:103A0000003801400010024000080140004400401E
:103A100090F83A30202B22D1F9B1F2B190F8383039
:103A2000012B1CD081628285C2850021C1632222C4
:103A300080F83A2080F838100168CA6842F4807231
:103A4000CA6001684A6942F001024A610068C168BF
:103A500041F02001C1600020704701207047022022
:103A60007047000070B500681749884223D1174D90
:103A7000174A0024297A29B900201454401CC0B2E6
:103A80006428FAD311480E3000780D2803D0505422
:103A9000491C297207E02C720120A87001F05EF821
:103AA00001F046F8AC70BDE87040084901220E31C3
:103AB0000848FFF7ADBF0849884203D1BDE8704010
:103AC00003F0B4BA70BD000000380140500000207F
:103AD000BC04002010080020004400402DE9F843F9
:103AE000044690F839001F4616460D4620284CD152
:103AF000C5B1BEB194F83800012846D0012084F841
:103B000038004FF00008C4F83C80212084F83900C8
:103B1000FEF704F8A6848146E684A068B0F5805FCD
:103B200003D004E00120BDE8F883206928B12E46C7
:103B30005FF0000584F838800EE00026FAE7802167
:103B4000204602F02FF8A0B9AEB116F8010B21689B
:103B50004860E08C401EE084E08C4B464FF0000251
:103B600000970028EBD14FF04001204602F01AF8F0
:103B700030B10320D7E735F8020BC0F30800E6E7C1
:103B8000202084F839000020CDE70220CBE77047E1
:103B9000FEE700000148FDF7C9BF0000B4060020A1
:103BA0000148FEF725B80000B406002038B5406A89
:103BB000002190F83D202B4B46F2A8141B68B3FB64
:103BC000F4F3C3EBC30303EB830300933BB15B1E2E
:103BD000009303681B689B0505D5009BF6E7036C03
:103BE00043F020030364436B03B19962836B03B119
:103BF000996203681C6824F480641C604185436BEF
:103C000003B15963836B03B1596303681C6824F0E3
:103C100001041C6090F83D402023602C0BD0282428
:103C200034EA02020FD080F83D3080F83E1000BF29
:103C3000FEF711F938BD80F83D3080F83E10016480
:103C4000FDF772FF38BD0268136843F0010313608B
:103C50000268136843F480631360016380F83D4099
:103C6000E6E700008400002070B5044690F83D00AF
:103C700094F83E10102901D0402906D1222804D101
:103C800021680A6822F400620A60282131EA0002F1
:103C90004FF000054FF0200626D02168496809053D
:103CA00005D4602803D084F83D6084F83E50256335
:103CB00020684168090537D5416821F400614160F9
:103CC000606B3D4990F82120012A11D04163606B5F
:103CD000FDF770FD38B32068016821F00101016033
:103CE00084F83D60606B1CE0256384F83D10DFE7DD
:103CF000A06B4163A06BFDF75DFDA0B12068416939
:103D0000C943490605D40069616A0870606A401CAD
:103D100060622068016821F00101016084F83D6063
:103D2000A06B416B884710E094F83D10602910D0DB
:103D30004169C943490605D40069616A0870606A2F
:103D4000401C60622046FEF786F8206CC1071CD13B
:103D500015E084F83D6025644169C943490605D4EE
:103D60000069616A0870606A401C606220680168CE
:103D700021F0010101602046FDF7D6FEE5E781074D
:103D800003D4410701D4000704D52068416821F419
:103D9000E061416094F83D00216C49070BD528286B
:103DA00009D10648E062256384F83D6084F83E50FE
:103DB0002046FEF715F970BDAD3B00080000FFFF7F
:103DC00001684A69D24352050FD46FF480624A6198
:103DD000002140F8301F202242738173026942F0B3
:103DE000040202610173012070470020704710B582
:103DF000C26A438D0168042B06D0438D032B08D083
:103E0000438D022B1DD012E04A6822F480624A6082
:103E10000CE04B6823F480634B60042A06D0022A2E
:103E200004D001680A6822F480620A6001680969A6
:103E3000426A1170416A491C4162418D491E4185A7
:103E400010BD012A30D0102A2ED0042A30D0022AE8
:103E50002ED00A6842F400720A6001680969426A59
:103E60001170416A491C4162428D521E42850268AE
:103E700012690A70416A491C4162418D491E41859F
:103E800001684A6822F440724A60202180F83D109F
:103E900090F83E200021402A80F83E100CD01221DC
:103EA0000163FEF79EF810BD0A6822F48062D3E732
:103EB0000A6842F48062CFE70163FEF72BF910BD78
:103EC00038B590F83D10222914D1418D032912D91B
:103ED00001680969426A1170416A491C4162418D59
:103EE000491E4185418D032904D10068416821F4B0
:103EF0008061416038BDC26A022AFBD0012901D02D
:103F00000029F7D1274946F2A81300220968B1FB1E
:103F1000F3F101EB8101009101682023009C641EF4
:103F2000009422D00C68A405F8D40C6824F48064B2
:103F30000C6001684C6824F4E0644C600168096915
:103F4000446A2170416A491C4162418D491E418584
:103F500080F83D3090F83E1080F83E2040291DD07A
:103F600012210163FEF73DF838BD046C44F02004D3
:103F700004644C6824F4E0644C6001680969446A94
:103F80002170416A491C4162418D491E418580F87A
:103F90003D3080F83E20FDF75EFF38BD0263FEF73E
:103FA000B9F838BD84000020F8B50446C06A1E4642
:103FB0000D461746082807D0012805D010F5803F88
:103FC00002D0206B122804D12068016841F480716E
:103FD0000160134600224FF001112046009600F0C8
:103FE0001FFB40B120680068C00502D54FF4007087
:103FF00020640320F8BD2069B0F5804F0ED0062064
:10400000216800EAD51040F0F000086133463A46D6
:104010000B49204600F038FB78B902E005F0FE00BD
:1040200000E0E8B221680861054933463A46891F35
:10403000204600F029FB0028DCD00120F8BD00005C
:104040000800010010B5C16A90F83D20212A0BD16B
:10405000428D52B1416A026809781161416A491C76
:104060004162418D491E418510BD0022202308294F
:1040700010D020290ED011F5803F0BD001684C687C
:1040800024F4E0644C601121016380F83E2080F844
:104090003D300EE001684C6824F4E0644C60016837
:1040A0000C6844F400740C60026380F83D3080F8C2
:1040B0003E20FDF797FF10BD10B590F83D1090F829
:1040C0003E30C26A048DB4B1212903D0402B11D1F6
:1040D00022290FD1418DE1B390F83E10402942D002
:1040E000416A026809781161416A491C4162418D47
:1040F000491E418510BD2129E8D120230021082A2D
:1041000013D0202A11D012F5803F0ED002685468D7
:1041100024F4E06454601122026380F83E1080F8B9
:104120003D3000BFFDF75EFF10BD0268546824F407
:10413000E06454600268146844F40074146001631D
:1041400080F83D3090F83E2080F83E10402AE9D1BA
:1041500000E002E0FDF7DFFF10BD0068416821F4D8
:104160008061416010BDBDE8104000F0F3B8000070
:1041700078B590F83E50C26A046B90F83D60002319
:104180000168222E73D1066D0EB9402D6FD0056DDA
:104190001DB90569B5F5404F1BD0458D95B3468DCA
:1041A000484D012E20D0448D022C4DD00C6844F493
:1041B00080640C6001684C68240579D5AA4273D0EC
:1041C000012A71D0082A6FD0102A6DD0202A6BD016
:1041D0006EE04A698A6900920A6842F480720A6055
:1041E000016D491C016578BDAA4214D10A6822F408
:1041F00080620A6001684A68120504D50A6822F4E0
:10420000806217E0FFE74A698A6900920A6842F40F
:1042100000720A6050E0082A10D0202A0ED0122C1A
:104220000AD0042A03D0022A01D0102AE6D10A6853
:1042300042F480620A603BE0012ADFD00A6822F47F
:1042400080620A600168DEE7042A11D0022A0FD0DA
:10425000102A0DD00C6844F400640C6001684C69AD
:104260008C6900940C6824F480640C6008E025E0FC
:104270000C6844F480640C6001684C6989690091A1
:1042800001684C68240517D5AA4207D0012A05D039
:10429000082A03D0102A01D0202A0DD14A6842F4FE
:1042A00080524A6008E0FFE74A6842F480524A6060
:1042B00001684A6989690091036578BD4869886920
:1042C000009078BD0000FFFF90F83E10402910D00C
:1042D0000169B1F5804F19D0016DA9B3016D0129B4
:1042E00010D1416C5FF0F10201F4407142EAD1114A
:1042F00006E0016D0029416C05D0C9B241F0010111
:1043000000680161704701F0FE01F9E790F83D1087
:104310002129416C09D0C9B241F001010268116143
:10432000416B29B1896A49B902E001F0FE01F5E764
:10433000816B0029E6D0896A0029E3D000684168D2
:1043400041F4006141607047FFE7416CF02201F4E5
:104350004071CBE710B590F83D10026D22B3026DAD
:10436000012A2FD0026D022A1DD1222931D0428D7F
:104370000AB1212933D0428D002A14D1212912D12A
:1043800001684A6822F4E0624A6001680A6842F4FF
:1043900000720A6000210163202280F83D2080F82D
:1043A0003E10FDF7B8FE10BDC16C0129816C02D032
:1043B000C1F3072108E00268C9B21161016D891CCF
:1043C000016510BD816CC9B202681161016D491CA3
:1043D000F6E70068016841F48071016010BD416A30
:1043E000026809781161416A491C4162418D491E88
:1043F000418510BD2DE9F04190F83D40C26A00238F
:1044000020261C4F01686FF48065082A01D0202AFD
:1044100001D1282C04D0212C16D04D61BDE8F081AB
:10442000C7624A6822F4E0624A6001684D6101682F
:104430000A6822F480620A60036380F83D6080F8B5
:104440003E30FDF7CDFDE9E7C7622122026380F827
:104450003D6080F83E304A6822F4E0624A600168BC
:104460004D6101680A6822F480620A60FDF7B1FEBE
:10447000D4E700000000FFFFF8B590F83D60044667
:104480000068416821F4E0614160206800254169CD
:104490000091016841F0010101602068016821F488
:1044A0008061016020684168090520D5474F222EB0
:1044B00048D02A2E46D0616B096849686185618DB4
:1044C00019B1216C41F004012164416821F40061BB
:1044D0004160606BFDF7BAF9012808D0606B476353
:1044E000606BFDF767F910B1606B416B8847608DB9
:1044F00008B320684169C943490708D40069616A63
:104500000870606A401C6062608D401E6085206893
:104510004169C943490608D40069616A0870606A44
:10452000401C6062608D401E6085608D18B1206CFB
:1045300040F004002064206C00B32046BDE8F84041
:10454000FFF792BBA16B096849686185618D19B15C
:10455000216C41F004012164416821F40061416053
:10456000A06BFDF773F90128C1D0A06B4763A06B66
:10457000FDF720F90028BAD0A06BB6E72A2E06D1A5
:104580002563282084F83D002046FDF721FE94F89D
:104590003D10202028290DD0216B222901D0222E68
:1045A00007D1256384F83D0084F83E502046FDF78E
:1045B0000FFEF8BD0649E162256384F83D0084F8EA
:1045C0003E502046FDF70CFDF8BD0000AD3B000855
:1045D0000000FFFF70B516460D4604460DE020466C
:1045E000FFF7EEFB08B1012070BD681C05D0FDF798
:1045F00095FA801BA84207D835B120684069C043AE
:104600004007ECD4002070BD002044F8300F20217A
:104610006173A073216941F0200121612073E2E7F9
:104620002DE9F0471E4690460D460446C1F3074764
:10463000DDF8209008E0701C06D0FDF76FFAA0EBC3
:104640000900B0420FD876B12068012F18D08069D8
:1046500025EA00000004000C14D000214145EAD0F6
:104660000020BDE8F087002044F8300F202161735E
:10467000A073216941F02001216120730120F0E73E
:104680004069E5E70121E9E72DE9F0479A469146BF
:104690000E46044600254FF02008C1F3074725E0E9
:1046A00020684069C043400514D42068016841F483
:1046B0000071016021686FF480604861256384F8AF
:1046C0003D8084F83E50206C40F00400206484F863
:1046D0003C501FE0B9F1FF3F08D0FDF71FFAA0EBF7
:1046E0000A0149450CD8B9F1000F09D02068012F03
:1046F00013D0806926EA00000004000C0BD0CFE73D
:1047000044F8305F84F80D80A573206940F02000E4
:10471000206125730120BDE8F0874069EAE770B5A4
:1047200016460D4604460DE02046FFF749FB08B14A
:10473000012070BD681C05D0FDF7F0F9801BA84270
:1047400007D835B120684069C0430006ECD400208A
:1047500070BD002044F8300F20216173A0732169DF
:1047600041F0200121612073E2E700000E4A0021A0
:10477000481E5175D1811075042393750B4BD1756B
:10478000FF221A700A4A107082F8330082F834004F
:104790009163D16302F14801087048700020C1E9BB
:1047A0000200C1E904007047000100204800002019
:1047B000380200203EB500211148009101910F4AB6
:1047C0000291026001248160047301754FF460223C
:1047D0000461C2614160FCF7D3FE08B1FCF740FD03
:1047E0000720CDE900040620029069460448FCF742
:1047F00045FE002801D0FCF733FD3EBD00280140F6
:10480000840600202DE9F04186B000243F48009442
:10481000019402940394816941F0100181618169DE
:1048200001F010010491816941F0200181618169E9
:1048300001F020010491816941F0040181618169E5
:1048400001F004010491816941F0080181618069EE
:104850002F4F00F008000490002202213846FDF797
:1048600058F9DFF8B080002215214046FDF751F9D4
:10487000012211034046FDF74CF90122110238468E
:10488000FDF747F94FF4817001250226CDE90005B7
:10489000CDE9024669463846FDF73EF8B020009063
:1048A0000320019069463846FDF736F841F21500BD
:1048B000CDE90005CDE9024669464046FDF72CF8F2
:1048C000E802154D6946CDE9000502943846FDF72A
:1048D00023F84FF40870CDE900056946029440467C
:1048E000FDF71AF8002201211720FDF7D9FC172047
:1048F000FDF7C8FC002201212820FDF7D1FC28206B
:10490000FDF7C0FC06B0BDE8F081000000100240D9
:1049100000080140000C0140000021100D4810B5B6
:104920000B4901600C49416000214FF480428160D5
:10493000C0E9031241618161C1610162FDF78CFA36
:10494000002803D0BDE81040FCF78ABC10BD000071
:1049500000540040B4060020A08601000D4810B5A8
:104960000B4901600C49416000214FF48042816095
:10497000C0E9031241618161C1610162FDF76CFA16
:10498000002803D0BDE81040FCF76ABC10BD000051
:104990000058004008070020A08601001CB5002038
:1049A000019000901A48194901604FF0FF314160B1
:1049B0004FF480718160FEF79BF808B1FCF750FC62
:1049C00015248DF8044023208DF805001E208DF855
:1049D0000600002201A90E48FEF756F908B1FCF7BF
:1049E0003FFC01208DF800008DF801000B208DF8B0
:1049F00002008DF80340002269460548FEF7E2F800
:104A0000002801D0FCF72CFC1CBD00000028004051
:104A10005C0700200F4810B50D4901604FF482710A
:104A2000416000218160C1604FF400720161C0E902
:104A30000512C1610162416281620A21C162FEF711
:104A400096F9002803D0BDE81040FCF709BC10BD62
:104A5000003800407007002010B586B000241748C9
:104A6000009401940294039404944FF080410594BF
:104A7000016048F69F41C0E9011440F2E731C0E906
:104A800003148461FEF7A2FC08B1FCF7E9FB4FF4C4
:104A90008050009069460948FEF70EFD08B1FCF70A
:104AA000DFFB049404A905480594FEF75BFC00288D
:104AB00001D0FCF7D5FB06B010BD0000C8070020F0
:104AC0000C4810B50A4901604FF4E1314160002102
:104AD00081600C22C160C0E904128161C161FEF7EE
:104AE000F9FE002803D0BDE81040FCF7B9BB10BDAB
:104AF00000380140100800200C4810B50A49016038
:104B00004FF4E1314160002181600C22C160C0E9B5
:104B100004128161C161FEF7DDFE002803D0BDE80B
:104B20001040FCF79DBB10BD004400405008002021
:104B300007488178412904D1C078432803D0492807
:104B400003D000207047FCF7A9B8FCF70DB90000AE
:104B500020050020FEE7FEE77047000070B5194809
:104B6000FBF757FBC2B20020044605460146154B31
:104B700005E05E5C402E00D10846491CC9B2914256
:104B8000F7D3014604E05E5C212E10D0491CC9B267
:104B90009142F8D3211A491C022912DD00210A4A48
:104BA0000E465654491CC9B26429FAD307E00C4694
:104BB000F0E7195C51556D1C401CEDB2C0B2A0422B
:104BC000F7D970BDBC04002020050020010901EBCD
:104BD000810100F00F0000EB4100C0B270470021DE
:104BE00002E00A38C0B2491C0A28FAD2090740EA92
:104BF000116070472DE9F04104460025C07B627BBF
:104C0000A37B42E0012A16D0032A14D0052A12D031
:104C1000072A10D0082A0ED00A2A0CD00C2A0AD053
:104C2000042A10D0062A0ED0092A0CD00B2A0AD04A
:104C3000022A0DD028E01F2B0CD30C2A05D101220B
:104C40001346401C20E01E2B04D30123521C1BE002
:104C50001C2B02D203F1010316E011D183B29E078F
:104C600010D16426B3FBF6F706FB173636B94FF4BE
:104C7000C876B3FBF6F706FB17331BB91D2303E019
:104C80001D2B01D1032201236D1C8D42BAD3D1B259
:104C9000E0736173DAB2A27300F050F82073BDE8DC
:104CA000F08170B50446FCF739FF05464FF47A767B
:104CB00006E0FCF733FF401BB04201D9032070BD72
:104CC000206840688006F4D52068416841F01001F2
:104CD0004160002070BD000070B504460068416866
:104CE00021F010014160FCF719FF05464FF47A7678
:104CF00007E000BFFCF712FF401BB04201D90320C0
:104D000070BD206840688006F4D5002070BD016841
:104D1000086A496A89B241EA0040704700688169BF
:104D20008AB2C1698BB2816989B28A4203D0C069F3
:104D300061F31F40704743EA02407047F0B56424B6
:104D4000C1EBC1030927A500072603EB01130329C3
:104D5000B3FBF7F100F5FA60114401440AD2401E9A
:104D6000B0FBF4F201EB9001B0FBF5F0891A0844B6
:104D7000001D08E0B0FBF4F201EB9001B0FBF5F090
:104D8000891A0844801CB0FBF6F106FB1100C0B282
:104D9000F0BD70B50D4606460024FFF782FF48B906
:104DA0003168280C08623168A8B248623046FFF7C3
:104DB00093FF00B10124204670BD70B50D46064634
:104DC0000024FFF76EFF48B93168280C886131680C
:104DD000A8B2C8613046FFF77FFF00B1012420462A
:104DE00070BD000010B51048FCF7C6FBFBF7C8FB10
:104DF0006FF00B02FBF79CFB4FF066320B4BFBF79F
:104E0000B6FA0B4A0B4BFBF7ACFA0B4A0B4BFBF712
:104E100020FBFBF7EDFB0A4910F1FF4F086001D3BF
:104E20000020086010BD00008406002066660A406D
:104E300029CB10C7BAB807402D431CEBE2364ABF56
:104E40006000002070B5154D0120287001F0CAFEE9
:104E5000CC2001F015FF442001F012FF4FF4487000
:104E6000FCF7F8FC01F0BEFECC2001F009FFBE20EB
:104E700001F006FF01F0DCFE094C207001F0D8FEC5
:104E80002178094B074A41EA002018800009107078
:104E900001F00F0020700020287070BD5B00002022
:104EA000590000205A0000206E000020F8B504468A
:104EB00040684FF48273984217D1A0684FF4806520
:104EC000B0F5004F01D0A8420FD12068066826F047
:104ED000400606606068984207D1A068A84204D1E5
:104EE00000920B460022012103E000920B460022B3
:104EF0008021204600F018F8002804D0606D40F0B2
:104F0000200060650320F8BD38B50B4600920446CA
:104F10000022802100F008F8002804D0606D40F0E5
:104F200020006065032038BD2DE9F8431E469146F8
:104F300088460446089DFCF7F1FD401B351AFCF736
:104F4000EDFD074625480068C0F3CB30684338E0E4
:104F5000701C37D0FCF7E2FDC01BA84203D215B18C
:104F6000009860B32CE02068416821F0E0014160C6
:104F70006068B0F5827F0BD1A068B0F5004F02D019
:104F8000B0F5806F04D12068016821F04001016014
:104F9000A06AB0F5005F09D12068016821F40051D2
:104FA00001602068016841F400510160012084F82B
:104FB0005100002084F850000320BDE8F88300254C
:104FC000401E00902068816838EA010004D000216A
:104FD0004945BDD10020F0E70121F9E78400002018
:104FE0007047000070B5002240210748FCF7A4F884
:104FF000064D00240122295D0348FCF79DF8641C3E
:10500000E4B2402CF6D370BDB800002005000020AB
:1050100008B52048FBF7CAFF0420009014234E2255
:105020001D491C48FBF7CCFF002207211948FCF75B
:1050300019F81AA11748FCF745F801220021154874
:10504000FCF710F8174A18A1194801F003F918499C
:105050001048FCF737F8022200210E48FCF702F84E
:1050600014A1134801F0F6F811490A48FCF72AF890
:10507000032200210748FBF7F5FF11A10C4801F0BE
:10508000E9F80B490348FCF71DF8BDE80840FBF7B9
:1050900047BF0000B8000020B4060020494E464F2C
:1050A000520000001803002049443A2025730000F4
:1050B000A40000205649455454454C3A20000000B5
:1050C000424154544552593A2000000008B5224844
:1050D000FBF76CFF0420009014234E221F491E484A
:1050E000FBF76EFF002205211B48FBF7BBFF1CA14D
:1050F0001948FBF7E7FF012200211748FBF7B2FF31
:105100001A4A1BA11E4801F0A5F81D48FBF781F8BB
:105110001C4908701A491048FBF7D4FF02220021ED
:105120000D48FBF79FFF184A18A1154801F092F8A7
:1051300013490948FBF7C6FF032200210648FBF785
:1051400091FF164A16A10E4801F084F8BDE8084008
:105150000B490148FBF7B6BFB8000020B406002099
:10516000534F4C4152504F5745520000D800002039
:10517000506469736368617267653A2025735700EC
:10518000A400002000000020EC00002050636861B3
:105190007267653A2025735700000000E200002086
:1051A000496368617267653A202573410000000019
:1051B0001FB52D48FBF7FAFE0420009014234E2261
:1051C0002A492948FBF7FCFE002206212648FBF766
:1051D00049FF27A12448FBF775FF0122002122483F
:1051E000FBF740FF25480068FBF7D7F9CDE902013E
:1051F000DF200090224824A1037822480278284822
:1052000001F028F82648FBF704F8264908702449DD
:105210001548FBF757FF022200211348FBF722FF36
:1052200021480068FBF7B9F902460B461FA11C484C
:1052300001F010F81A490C48FBF744FF0322002143
:105240000948FBF70FFF1E480068FBF7A6F9024666
:105250000B461CA1124800F0FDFF04B01049BDE848
:1052600010400148FBF72EBFB8000020B406002014
:10527000534541574154434800000000640000205A
:10528000590000205A00002054656D703A25642EA4
:105290002564256320202070483A252E31660000C1
:1052A0009000002000000020600000205475726211
:1052B00069646974793A20252E3066204E54550071
:1052C00068000020416D706C69747564653A202532
:1052D0002E3166206D0000002DE9F0471C4C03279D
:1052E0004FF00008E77584F8148004254FF47A69BC
:1052F000A5754A4617A118A000F0D8F94FF0FF3A5B
:1053000001281FD104F59C764A4686F80080A575D1
:10531000C84610A118A000F0C9F9012812D13070B8
:10532000A57542460BA11DA000F0C0F9012809D1C6
:1053300002203070A575424606A11CA000F0B6F907
:10534000012802D05046BDE8F08737700120FAE707
:10535000000100204F4B000041542B53415042525A
:105360003D332C312C22436F6E74797065222C22D0
:1053700047505253220D0A0041542B534150425280
:105380003D332C312C2241504E222C22762D696E39
:105390007465726E6574220D0A00000041542B532F
:1053A000415042523D312C310D0A000041542B53E3
:1053B000415042523D322C310D0A000070B50E4969
:1053C00004204FF47A66887532460CA10CA000F0D8
:1053D0006DF90F4D4FF0FF34012801D185F83340AE
:1053E000324606A10BA000F061F9012801D0204649
:1053F00070BD2C70012070BD000100204F4B0000DB
:1054000041542B485454505445524D0D0A0000004D
:105410003802002041542B53415042523D302C3130
:105420000D0A000070B51B4C4FF0FF3620780128A4
:105430002DD11949042040F6B83588752A4617A1A0
:1054400018A000F033F901281FD02846FCF702FA13
:10545000114819A118300446FAF7C9FE00F10A05EF
:1054600018A12046FAF7C3FE441B601E09280ADD76
:1054700014211548FAF7B0FE220000D562422946F1
:105480001148FAF790FE012070BDFF2020703046D1
:1054900070BD000048000020000100204552524F1E
:1054A0005200000041542B435553443D312C222AD5
:1054B00031303123220D0A002B435553443A203119
:1054C0002C0000002E000000180300202DE9F14FF1
:1054D0003C4E0020A6F59C7486F83400042540F666
:1054E000B837A5753A4638A138A000F0DFF84FF07C
:1054F0000109012801D186F83390A5753A4632A1F9
:1055000036A000F0D3F8012802D1022086F833003B
:10551000A5753A462CA137A000F0C8F8012802D1A1
:10552000032086F83300A57540F6B83226A141A0C5
:1055300000F0BCF8012801D186F833500027AA46B4
:1055400004F1180B49F6404884F816A042F2107294
:1055500043A146A000F0AAF801281CD1009801F050
:1055600055FDFBF759FEFCF7D9FA054604E016A1F4
:105570005846FAF73CFE20B9FCF7D0FA411B4145EA
:10558000F5D384F8169044F620623EA13EA000F0C8
:105590008DF801280AD07F1CFFB2042FD4D396F8CF
:1055A0003400002800D1401EBDE8F88F86F8349002
:1055B00040F6B830FCF74EF938A001F027FD012085
:1055C000F2E70000380200204F4B000041542B4806
:1055D000545450494E49540D0A00000041542B4880
:1055E000545450504152413D22434944222C310DE4
:1055F0000A00000041542B48545450504152413D40
:105600002255524C222C2267726164756174696F55
:105610006E2D32303230312E6865726F6B7561706D
:10562000702E636F6D2F736F636B657453656E645B
:10563000220D0A0041542B48545450504152413DD0
:1056400022434F4E54454E54222C226170706C6997
:10565000636174696F6E2F6A736F6E220D0A0000AA
:10566000444F574E4C4F41440000000041542B48DA
:10567000545450444154413D3430302C3230303059
:10568000300D0A003230300041542B485454504100
:105690004354494F4E3D310D0A00000041542B4800
:1056A000545450524541440D0A0000002DE9F74F73
:1056B0004FF0FF3982B017464C462D4EDFF8B480CC
:1056C0004EE000BFFBF7A8FDFCF728FA0546FCF703
:1056D00025FA0090029801F099FC26484FF0000A44
:1056E00000F10C0100F1180B019108E0FCF716FA2B
:1056F000401BB84203D9484605B0BDE8F08F30786A
:105700000028F3D0FCF70AFA054617E001221A48F0
:105710000199FEF77DF970B1FCF700FA0099401A83
:1057200064280BD986F800A058460399FAF75FFD64
:10573000E0B1012418E0FCF7F1F90090FCF7EEF974
:10574000401BB842E2D3601CD9D0012C0CD04FF4DE
:105750007A70FCF77FF898F81610491E88F8161032
:1057600098F816000028ADD12046C5E74C46C6E79C
:105770006C00002000010020500800202DE9F047B7
:10578000FEF7F4FF374C38480426A675002545601F
:10579000012204F10C013548FEF73AF94FF47A7012
:1057A000FCF758F80127DFF8C88067753A460421EE
:1057B0004046FCF7AEF940F6C410FCF74BF86575AF
:1057C000002204214046FCF7A4F94FF4FA68404651
:1057D000FCF740F8274840F6B8394A46057026A13C
:1057E00026A0FFF763FF6D1E401C1BD0A67541F27B
:1057F000883224A127A0FFF759FF401C15D040464E
:10580000FCF728F8FCF78AF94CF25031084404F10F
:105810001808206122A14046FAF7E9FC40B10220B5
:10582000E07513E02846BDE8F08728462575FAE7BD
:105830001EA14046FAF7DBFC18B125752846E7752E
:10584000F1E7FCF76BF921698842E3D9A6754A466E
:1058500009A11AA0FFF72AFF012801D10248077009
:105860000120E0E70001002048000020500800204F
:10587000000C0140500000204F4B000041540D0A25
:10588000000000002B4350494E3A205245414459F4
:105890000000000041542B4350494E3F0D0A0000C8
:1058A000534D532052656164790000004E4F5420DF
:1058B000494E5345525445440000000041542B4387
:1058C0004D47463D310D0A00FCF784BC30B593B01E
:1058D00028216846FAF780FC14210AA8FAF77CFC14
:1058E00000240F940620009001201294039004904D
:1058F000102005904FF4E010CDE9084011940225E6
:10590000109407956846FCF7CFFE08B172B6FEE723
:105910000F20CDE90A054FF48060CDE90C4001214C
:105920000AA80E94FCF7CEFD08B172B6FEE703207C
:105930000F904FF480701090C00111900FA8FCF7E9
:105940004BFD002801D072B6FEE713B030BD7047A2
:105950000148FDF71DBE0000C8070020F0B5026831
:10596000164B174C174D4FF08047984205D0B84260
:1059700003D0A04201D0A84203D122F070064A68A9
:105980003243984205D0B84203D0A04201D0A84289
:1059900003D122F44074CA6822434C6922F0800289
:1059A000224302608A68C2620A688262984201D118
:1059B0000969016301214161F0BD0000002C014033
:1059C000000400400008004010B5846842EA032249
:1059D00024F47F440A432243826010BD826822F08F
:1059E00070020A4342F007018160704710B5036AF4
:1059F000046A24F001040462846924F0F00444EA97
:105A0000021423F00A020A438461026210BD10B539
:105A1000036A23F0100303628369046A23F470436A
:105A200043EA023224F0A00343EA011182610162D9
:105A300010BD10B5406A0021C185C184FDF79BFEF1
:105A400010BD0168CA6822F49072CA6001684A6990
:105A500022F001024A61202180F83A10704710B507
:105A600090F83A10222901D0022010BD82684FF42C
:105A700080539A4201D1016921B1816A9A421BD0B7
:105A80004AB10AE00268816A5268C2F308020A80D9
:105A9000816A891C08E0026972B10268526802F0EA
:105AA0007F020A70816A491C8162C18D491E090406
:105AB000090CC18503D016E002685268F1E701685D
:105AC000CA6822F02002CA600168CA6822F48072A3
:105AD000CA6001684A6922F001024A61202180F807
